:020000040800F2
:10000000C005002065100008991700089D1700081A
:10001000A1170008A5170008A91700080000000094
:10002000000000000000000000000000AD17000804
:10003000B117000800000000B5170008B917000844
:1000400061100008611000086110000861100008CC
:1000500061100008611000086110000861100008BC
:1000600061100008611000086110000861100008AC
:10007000611000086110000861100008611000089C
:10008000611000086110000861100008611000088C
:10009000BD17000861100008611000086110000819
:1000A000611000086110000861100008611000086C
:1000B000611000086110000861100008611000085C
:1000C000611000086110000861100008611000084C
:1000D000611000086110000861100008611000083C
:1000E0006110000861100008C5170008000000003A
:1000F0000000000000000000000000000000000000
:1001000000000000000000005FF808F108B520B909
:10011000064B1B6801221A8208BD054B1B681B6831
:100120009847024B18680A3008BD00BFB001002094
:10013000AC01002008B520B9064B1B6801221A82C9
:1001400008BD054B1B689B689847024B18680C302C
:1001500008BD00BFB0010020AC01002008B520B9E7
:10016000274B1B6802221A8208BD0022254B1A80E9
:10017000234B1A68137813F07F0311D1537A13F0CD
:10018000200F02D002211F4A117013F0400F1D4BA7
:100190001A7814BF42F0010222F001021A7025E021
:1001A000012B29D0022B29D1537903F00F0213F030
:1001B000800F0DD0920002F1804202F5B842136820
:1001C00003F03003102B11D101220E4B1A700DE0F9
:1001D000930003F1804303F5B8431B6803F44053D5
:1001E000B3F5805F02D10122064B1A70064B1B68E3
:1001F0001B699847034808BD024808BD002008BD98
:10020000B001002008010020AC010020F8B5254B0A
:100210001C68238A227ACBB9042A40D1224B1B784E
:10022000012B0ED1214B1A6892B2214B13445B0073
:1002300000221A6030211F4B19801B4B1A700426B4
:1002400029E010221B4B1A80072624E0A58AAB4226
:100250008CBF022604269D4228BF1D46A36928465E
:1002600098470746002000F099FE014638462A4686
:1002700001F00AFB0020294600F0ACFE238A5B1B3C
:100280002382638A1D44658230220A4B1A804FF410
:100290004052094B1A80034B1B681E72F8BDA58A99
:1002A0000426D8E7B0010020F0000020505C004098
:1002B000023000200C0100200A01002008B50C4B80
:1002C0001B68DA780B49497891420AD3997851B979
:1002D000998851B99A72084B1B685B68984700204F
:1002E00008BD022008BD022008BD022008BD00BFD5
:1002F000B0010020A8000020AC01002010B5114C76
:100300002368114A126892695879D978904723680E
:100310009A7A7AB180B91A7982B99B7883B90B4BF2
:100320001B68DB68984723685A79DA72DA781A739F
:10033000002010BD022010BD022010BD022010BD03
:10034000022010BDB001002088010020AC01002077
:1003500010B5424B1A68137813F07F0305D1537A16
:1003600023F020035372002010BD022B6AD1538862
:10037000002B69D11379002B68D1537923F08000C9
:1003800013F0800F4FEA800101F1804101F5B8417F
:1003900019BF0C6804F03004096801F44054304976
:1003A0000978884254D2002C54D0927A002A53D033
:1003B00013F0800F12D0830003F1804303F5B8439C
:1003C0001B6803F03003102B36D1C4B2204600F076
:1003D000B1FD2046302100F025FD2DE0840004F120
:1003E000804404F5B844236803F44053B3F5805FB8
:1003F00022D190B91B4B93F82C1000F0F9FD236823
:1004000023F4804323F070039BB283F4405343F4FE
:10041000004343F0800323600EE000F077FD236883
:1004200023F4804323F070039BB283F4405343F4DE
:10043000004343F0800323600B4B1B685B699847C4
:10044000002010BD022010BD022010BD022010BDF2
:10045000022010BD022010BD022010BDB0010020FE
:10046000A800002024000020AC01002010B52B4B78
:100470001868437923F0800213F0800F4FEA82015D
:1004800001F1804101F5B84119BF0C6804F0300456
:10049000096801F44054224909788A4235D24188DA
:1004A000002934D1002C34D0817A002933D013F0C4
:1004B000800F12D0930003F1804303F5B8431A680C
:1004C00022F4E04222F0400292B282F0100242F4A2
:1004D000004242F080021A6011E0930003F1804371
:1004E00003F5B8431A6822F4804222F0700292B2F7
:1004F00082F4805242F4004242F080021A60094BBA
:100500001B689B699847002010BD022010BD022087
:1005100010BD022010BD022010BD00BFB0010020A0
:10052000A8000020AC01002008B5064B1B685A7AD1
:1005300042F020025A72044B1B68DB699847002086
:1005400008BD00BFB0010020AC010020054B1B68B6
:100550005A8A18B989888A1A1A827047086810441A
:10056000704700BFB001002008B500200A4B93F887
:100570002C1000F03DFD094B1B68187A082806D1A5
:100580004FF48052064B1A801022064B1A8009281D
:1005900014BF0020012008BD24000020B00100206D
:1005A0000A0100200C01002070B582B0984B1A6837
:1005B00092B2984B13445B001C68974B1B681A7AE5
:1005C000092A18D0A4B2640004F1804404F5C044A0
:1005D00022781A70904D2B6862785A702E68A08825
:1005E00000F038FD70802E68208900F033FDB08067
:1005F000A2892B68DA80884B1B6801221A72DA887C
:10060000002A67D15C781A7812F07F022BD1092C6E
:1006100002D1FFF753FE38E0052C0CD193F90320EB
:10062000002A48DB9A78002A47D19A88002A46D1C6
:100630009B7A9BB345E0032C07D1DA78012A25D1B8
:100640009B881BBBFFF770FF1FE0012C1ED1DA78DF
:10065000012A1BD19A88CAB95B7A13F0200F15D0F2
:10066000FFF776FE11E0012A04D10B2C0ED1FFF723
:1006700045FE0AE0022A09D1012C02D1FFF768FEEB
:1006800003E0032C02D1FFF7F1FE38B1634B1B6886
:100690005B6920469847032815D0B0B95C4B1A68AF
:1006A00092B25F4B13445B0000221A6030225D4B14
:1006B0001A8006220AE0082208E0082206E0082242
:1006C00004E0082202E0092200E00822524B1B68E5
:1006D0001A72E9E05A78062A17D11A7812F07F0FB9
:1006E00040F087809B78012B03D14C4B1B68DA6963
:1006F00071E0022B03D1494B1B681A6A6BE0032B94
:1007000077D1464B1B685A6A65E0002A41D15A8866
:10071000002A6ED15A6822F47F42B2F5003F68D1B8
:100720001A7812F07F0204D19B88002B00F0BF8062
:100730005FE0012A0ED1394A126892695879002186
:100740009047002855D1344B1B689B7A002B40F012
:10075000B0804EE0022A4CD15B7903F00F0113F018
:10076000800F4FEA810202F1804202F5B84219BFC0
:10077000106800F03000126802F440502A4A1278E3
:10078000914236D213F0700F33D1002840F093809D
:100790002FE0082A05D11B7813F07F0F00F08D8021
:1007A00027E00A2A25D11A7802F07F02012A20D1F7
:1007B0009A7AF2B15A88E2B95A6822F47F42B2F5C5
:1007C000803F16D1154A12689269587900219047E6
:1007D000002874D00DE062B10F4C236800205882CD
:1007E0009A61904723681A8A4FF6FF718A4229D18D
:1007F00023E00A4B1B68084A12681B695078984727
:10080000032813D1044B1B6809221A724CE000BF65
:10081000505C004004300020B0010020880100201E
:10082000023000200C010020A8000020264B1B688D
:100830001A8A4FF6FF718A4202D109221A7233E0F6
:10084000022800D012B908221A722DE093F9001084
:10085000002923DAD98801910198824202D9019AAC
:100860001A8213E0914211D91849096891F82C10A5
:10087000914203D90021164A117007E092FBF1F072
:1008800001FB102212B90121114A11700F4A12689E
:1008900092F82C209A82FFF7B9FC05E003221A7225
:1008A0004FF440520B4B1A80FFF75EFE09E00A4AF4
:1008B00092E7094A90E7084A8EE7084A8CE7084A17
:1008C0008AE702B070BD00BFB0010020880100209F
:1008D000F00000200A0100205D0100080D01000861
:1008E0003501000870B5354B1C68237A022B56D0B1
:1008F000042B56D0032B01D0052B48D1228AA369A3
:10090000ABB1A2B1A58A954228BF154628469847A3
:100910000646238A5B1B2382638A2B446382002062
:1009200000F04AFB014630462A4600F0C7FF238A02
:10093000002B3FD04FF44052214B1A80002001463B
:1009400000F048FB30221F4B1A80238AA28A9A4269
:1009500004D81A4B1B6803221A7214E023B1174BF8
:100960001B6805221A720EE0144B1B6806221A72CD
:10097000154B1A6892B2154B13445B0000221A60A3
:100980003022104B1A800D4B1B681A7A0CE0072B93
:1009900009D10F4B1B68DB689847082204E0082246
:1009A00002E0082200E00822044B1B681A72FFF7DD
:1009B000DBFD70BDA38A002BD6D1CAE7B0010020B1
:1009C0000A0100200C010020505C00400230002091
:1009D00088010020F0B40E4B1D7895B1002248F23A
:1009E000800740F60F76D1B28B0003F1804303F508
:1009F000B8431C68394334402143196001329542A1
:100A0000F1D840F08000034B1860F0BC704700BF85
:100A1000A80000204C5C004008B5154B1A68137AFA
:100A2000022B01D0042B05D1FFF7F0FB104B1B6804
:100A30001A7A16E0062B13D15378052B0AD11378B6
:100A400013F07F0F06D1D078FFF7C4FF094B1B6866
:100A50001B6A9847084B1B689B689847082200E070
:100A60000822034B1B681A72FFF77EFD08BD00BF0A
:100A7000B0010020AC01002088010020704700BFB9
:100A800070B582B00023ADF80630934E934C944D70
:100A900019E1238803F00F032B70002B40F0DF8057
:100AA000904A116889B2904B1980188800F0300084
:100AB0008E490880198801F440511980136823F485
:100AC000804323F040031B041B0C83F4005383F08A
:100AD000200343F4004343F080031360238803F0B2
:100AE00010039BB2002B39D11446136823F4E14361
:100AF00023F070031B041B0C1360FFF78DFF2368AA
:100B000023F4804323F040031B041B0C764A128815
:100B100002F4805292B20AB183F48053724A12886E
:100B200002F4005292B20AB183F400536F4A128861
:100B300002F0100292B20AB183F010036B4A1288DD
:100B400002F0200292B20AB183F0200343F4004382
:100B500043F080039BB2634A1360BBE0614B1B68A8
:100B60009BB2ADF80630BDF8063003F400639BB2CB
:100B7000002B37D05B4C236823F070031B051B0D43
:100B80002360FFF711FD236823F4804323F0400323
:100B90001B041B0C544A128802F4805292B20AB110
:100BA00083F48053504A128802F4005292B20AB180
:100BB00083F400534D4A128802F0100292B20AB137
:100BC00083F01003494A128802F0200292B20AB15F
:100BD00083F0200343F4004343F080039BB2414A77
:100BE000136077E0BDF806301BB2002B6BDA3D4C8A
:100BF000236823F070031B051B0D2360FFF772FEB3
:100C0000236823F4804323F040031B041B0C364A63
:100C1000128802F4805292B20AB183F48053324AAD
:100C2000128802F4005292B20AB183F400532F4AA0
:100C3000128802F0100292B20AB183F010032B4A1C
:100C4000128802F0200292B20AB183F0200343F42A
:100C5000004343F080039BB2224A13603AE09B00BA
:100C600003F1804303F5B8431A6892B2ADF8062049
:100C7000BDF8062012B2002A0BDA1A6822F07002C0
:100C80001205120D1A602A78013A194B53F82230D6
:100C90009847BDF8063003F080039BB29BB12B78D8
:100CA0009B0003F1804303F5B8431A6822F4E14244
:100CB00022F070021204120C1A602A78013A0D4BCD
:100CC00053F82230984733689AB2228013F4004FC9
:100CD0007FF4DFAE02B070BD445C0040BC01002078
:100CE0008C010020005C00400A0100200C01002063
:100CF000B8000020D400002082B03B4B1A6842F0BC
:100D000001021A605968394A0A405A601A6822F08A
:100D1000847222F480321A601A6822F480221A60E7
:100D20005A6822F4FE025A604FF41F029A600022B1
:100D3000009201921A6842F480321A601A461368CF
:100D400003F400330193009B01330093019B1BB913
:100D5000009BB3F5A06FF2D1234B1B6813F4003F47
:100D600014BF012300230193019B012B36D1204B9B
:100D70001A6842F010021A601A6822F003021A6020
:100D80001A6842F002021A60A3F580535A685A604A
:100D90005A685A605A6842F480625A605A6822F46B
:100DA0007C125A605A6842F4E8125A601A6842F09B
:100DB00080721A601A46136813F0007FFBD00A4B4A
:100DC0005A6822F003025A605A6842F002025A60DE
:100DD0001A46536803F00C03082BFAD14FF0006257
:100DE000044B9A6002B07047001002400000FFF808
:100DF0000020024000ED00E04FF6F8730340014A86
:100E000013607047505C0040800000F1804000F5A6
:100E1000B840036823F4EC4323F0700319438BB20A
:100E200003607047800000F1804000F5B84003681F
:100E300023F4E04323F040039BB201F0100292B28E
:100E40000AB183F0100301F0200189B209B183F0E7
:100E5000200343F4004343F080030360704700BF66
:100E6000800000F1804000F5B840036823F480431F
:100E700023F070039BB201F4805292B20AB183F462
:100E8000805301F4005189B209B183F4005343F453
:100E9000004343F080030360704700BF800000F10F
:100EA000804000F5B840036823F4E04323F040039A
:100EB0009BB283F0300343F4004343F080030360AC
:100EC000704700BF800000F1804000F5B840036823
:100ED00023F4804323F070039BB283F4405343F424
:100EE000004343F080030360704700BF800000F1BF
:100EF000804000F5B840036823F4F8731B051B0D10
:100F000043F4004343F0800303607047800000F126
:100F1000804000F5B840036813F4804F09D003689F
:100F200023F0F0031B051B0D43F4404343F0800303
:100F300003607047800000F1804000F5B84003680E
:100F400013F0400F09D0036823F0F0031B051B0DBD
:100F500043F4004343F0C00303607047064B1B6833
:100F6000490849009BB203EBC00000F1005000F5B6
:100F70004050400001607047505C0040054B1B68CA
:100F8000490849009BB203EBC000034B03445B00DC
:100F900019607047505C004004300020054B1B680E
:100FA0009BB203EBC00000F1005000F54050400040
:100FB00000887047505C0040044B1B689BB203EBF9
:100FC000C000034B03445B0018887047505C00402E
:100FD00004300020044B1B689BB203EBC000034BA2
:100FE00003445B0019607047505C004002300020F1
:100FF0000E4B1B689BB203EBC0000D4B03445B0020
:101000003E290BD94A0911F01F0F04BF02F1FF322C
:1010100092B2920242F400421A6070474A0811F0FC
:10102000010F18BF013292021A607047505C0040F5
:1010300006300020054B1B689BB203EBC000044B3D
:1010400003445B001868C0F309007047505C00401F
:1010500006300020C3B2000A40EA0320704700BFF8
:10106000FEE700BF10B5104B104A9A420DD2131D77
:101070000F4CE41A24F003040434002310460D49F5
:101080005A581A500433A342FAD10B480B494FF077
:1010900000028842B8BF40F8042BFFF6FAAFFFF712
:1010A0002BFE00F0DFFA10BDF00000200000002051
:1010B000F30000204C1B0008F0000020C0010020BD
:1010C00030B492B14B1C0331541EE4B201EB440422
:1010D0000021020F092A94BF3032373203F8012C65
:1010E000000103F8021BA342F3D130BC704700BFDC
:1010F00008B54FF4802000F039FB05484FF48023F9
:101100000360082343710123837100F0E7FA08BDEF
:101110005401002008B5002000F0CCFA4FF4000084
:10112000012100F0CDFA08BD08B5064B9B7A1BB132
:101130000522054B1A6002E00122034B1A60FFF7FB
:10114000DBFD08BD90010020F800002010B582B042
:101150004FF4A06000F058FB14238DF804300223F4
:101160008DF8053000238DF8063001248DF80740F6
:1011700001A800F053FB2A238DF804308DF80540B8
:1011800001A800F04BFB02B010BD00BF38B50A4B00
:101190001A6804331C6804331B68D0180AD0074D42
:1011A00029460822FFF78CFF204605F11001042292
:1011B000FFF786FF38BD00BFE8F7FF1F02000020E1
:1011C00010B50C463F290FD80022084B1A60C021E9
:1011D000224600F059FB01202146FFF7FBFE0120CB
:1011E000FFF75CFE012010BD002010BDB000002004
:1011F00008B50022034B1A600320FFF763FE0120AD
:1012000008BD00BFB4000020034B9B7A13B1052238
:10121000024B1A60704700BF90010020F8000020C8
:101220000422014B1A607047F8000020034B1B7822
:10123000202B02D10022014B1A707047F1000020D0
:10124000704700BF10B5212808D1144B1B681B78CC
:1012500003F07F03212B0BD0022010BD202811D1D9
:101260000E4B1B681B7803F07F03212B11D10BE081
:101270000B4A0A4B1B689A6100245C822046904707
:10128000204610BD022010BD2022064B1A70064ACF
:10129000EFE72022034B1A70022010BDB00100209E
:1012A000E1120008F1000020F9120008074B1B684A
:1012B0001B7803F07F03212B06D100F0DF0002280A
:1012C0000CBF00200220704702207047B0010020B0
:1012D00021B9022834BF0020022070470220704745
:1012E00020B9034B1B6808221A82704701487047D7
:1012F000B00100201C00002020B9034B1B6808220D
:101300001A82704701487047B00100201C0000207D
:1013100010B5FFF73BFF044B1B6800249C7200F0E4
:101320002BFA024B1C6010BDB0010020F800002019
:1013300010B5334B1B6800249C72324AD2795A7222
:10134000DC722046FFF758FD20464FF40071FFF78E
:101350005BFD20461021FFF765FD20464021FFF789
:101360000DFE20468021FFF7F9FD2046FFF7BEFD68
:101370002046254B93F83410FFF73AFE2046FFF73E
:10138000A1FD01202146FFF73FFD0120C021FFF70D
:10139000E5FD01202021FFF745FD01202146FFF753
:1013A0005FFD02204FF4C061FFF72EFD02204FF4D5
:1013B0008071FFF7D3FD02202146FFF751FD022087
:1013C0002021FFF72FFD03202146FFF71DFD0320FD
:1013D0004FF48871FFF7D2FD03204021FFF708FE8C
:1013E00003204FF44051FFF73BFD03202146FFF758
:1013F00019FD2046FFF7EEFA0122044B1A6010BDDA
:10140000B0010020F41A00081C000020F8000020A1
:1014100008B50249FFF79AF808BD00BF5400002044
:1014200008B50249FFF792F808BD00BF5C00002034
:1014300008B5064B1B68DB78042B05D8044901EB83
:10144000C301FFF783F808BD002008BDB0010020EC
:101450006400002010B483B000230193334A146861
:10146000A4B2403A324852F8041B89B240F8231023
:101470000133082BF7D144F480622C4B1A6042F000
:1014800001021A6024F00104A4B244F480621A60DC
:10149000284A136813F4806FFBD04FF6FF32254BB8
:1014A0001A60254A0023224850F8231089B242F8D6
:1014B000041B0133082BF7D144F481641B4B1C60DF
:1014C0001A6892B242F004021A6003F59E531A6839
:1014D00001921A6822F0030242F001021A60174BCF
:1014E0001A6942F004021A61124B1B6813F4805F00
:1014F00006D130BF114B1A6922F004021A6111E0C3
:101500004EF6FF720B4B1A60084A11684FF6F773DC
:101510000B401360019A0A4B1A60084B1A6922F0BB
:1015200004021A6103B05DF8044B7047405C004050
:1015300064010020445C0040005C004000ED00E0DD
:101540000070004010B5064C22684FF6FB73134044
:101550002360FFF7E9FD4FF43F43236010BD00BF58
:10156000405C004008B507281CBF2D4B18702C4B61
:101570001B78DBB2052B4FD8DFE803F00310191FEF
:101580002C38284B1B682BB9FFF7DCFF0622244BB5
:101590001A7008BD0522224B1A7008BDFFF7D2FF52
:1015A00004221F4B1A7001221E4B1A6008BD1C4BEF
:1015B00002225A7003221A7008BD194B5A78013A58
:1015C000D2B25A705B7813F0FF0F28D10422144B6B
:1015D0001A7008BD144B1A6892B242F010021A60D9
:1015E0000F4B05221A700A225A7008BD0C4B5A780C
:1015F000013AD2B25A705B7813F0FF0F0FD10A4A4A
:1016000011684FF6EF730B4013600622044B1A70FB
:101610000022044B1A6008BD0622014B1A7008BD57
:1016200060010020F4000020405C004008B5074B3A
:10163000074A136002221A72064B074A13600749D1
:10164000074A11601B68984708BD00BF9001002041
:10165000B001002024000020880100208400002028
:10166000AC01002038B5FFF743FDFFF753FDFFF74E
:101670006DFDFFF7DBFF0B4C0B4D2368052BFCD1F9
:10168000FFF7B6FD2B68002BF7D0084B1B68012B2A
:1016900004D129680648C9B2FFF792FD00232B60E8
:1016A000EBE700BFF8000020B8010020B0000020E8
:1016B00014010020014B1860704700BFD80042425F
:1016C00021B1054BDA691043D8617047024BDA69E2
:1016D00022EA0000D86170470010024010B48379FC
:1016E000002B33D0204B1968026821EA02021A60ED
:1016F0005968026821EA02025A60027902F18042C6
:1017000002F5823214680168214311609968026809
:1017100021EA02029A60D968026821EA0202DA60CC
:101720004379102B09D1104B996802680A439A60DB
:10173000D96802680A43DA6012E003F1804303F5D6
:101740008233196802680A431A6009E0037903F1D9
:10175000804303F582331A68016822EA01021A60A5
:101760005DF8044B704700BF00040140014B586115
:10177000704700BF000401400020044B18604FF484
:101780003F43034A1380034A13607047445C0040A0
:10179000B4010020405C0040704700BFFEE700BF7E
:1017A000FEE700BFFEE700BFFEE700BF704700BFD7
:1017B000704700BF704700BF704700BF08B500F01A
:1017C0008DF808BD08B54FF48020FFF7CFFF08BDA6
:1017D0000122014B1A607047B000002008B50122B9
:1017E000064B1A600320FFF725FC0246044B1860E5
:1017F00004484FF4887100F061F808BDB40000207F
:10180000B80100201401002040F0BF6040F4003017
:10181000014BD860704700BF00ED00E010B4C37802
:10182000FBB1174BDB68DB43C3F30223C3F10402B4
:10183000417801FA02F20F21D94084782140114306
:1018400002780901C9B20F4B1A4482F800130278DA
:10185000510902F01F02012000FA02F243F8212090
:101860000AE00378590903F01F03012202FA03F387
:101870002031044A42F821305DF8044B704700BF24
:1018800000ED00E000E100E010B4013201F1005190
:1018900001F54051490053100DD00A1D023010F8D7
:1018A000014C10F8021C41EA042122F8041C043205
:1018B0000230013BF3D15DF8044B7047013201F176
:1018C000005101F540514900531005D051F8042B47
:1018D00020F8022B013BF9D1704700BF10B588B04A
:1018E000644B1A6892B2644B1A801A88634B1B8847
:1018F000134003F400739BB243B14FF6FF525D4BAC
:101900001A605F4B1A780132D2B21A705A4B1A8899
:101910005A4B1B88134003F400439BB20BB1FFF7F3
:10192000AFF8554B1A88554B1B88134003F480635E
:101930009BB233B14FF6FF324E4B1A60514B5B688E
:1019400098474D4B1A884D4B1B88134003F40053A6
:101950009BB21BB14DF6FF72464B1A60464B1A887C
:10196000464B1B88134003F480539BB233B14EF6B1
:10197000FF72404B1A600020FFF7F4FD3E4B1A88BF
:101980003E4B1B88134003F400639BB273B13E4B84
:101990001B7813F0FF0F02D0FFF75CFD02E002207E
:1019A000FFF7E0FD4FF2FF72324B1A60324B1A889C
:1019B000324B1B88134003F480739BB2002B56D02C
:1019C0004FF6FF622B4B1A6004331B6813F4004F71
:1019D00047D02B4B5A6801325A605B68032B43D9BE
:1019E0002A4B1B6813F0080F3ED1284B1A6892B29D
:1019F000234B9A60264A002352F8040B80B208ACAD
:101A000004EB830141F8200C0133082BF4D11C4B6B
:101A10009A6842F001029A60996889B21B4A116083
:101A2000996821F0010199609B689BB213600432B0
:101A3000136813F4806FFBD04FF6FF320D4B1A6022
:101A4000134A002308A800EB830151F8201C89B237
:101A500042F8041B0133082BF4D10022084B5A60D2
:101A600002E00022064B5A600720FFF77BFD08B01A
:101A700010BD00BF445C0040BC010020B401002048
:101A8000FC00002024000020AC000020405C00404E
:101A9000005C00403203530054004D00330032001C
:101AA00020005600690072007400750061006C002F
:101AB000200043004F004D00200050006F007200D6
:101AC00074002000200000002603530054004D0045
:101AD0006900630072006F0065006C0065006300C0
:101AE000740072006F006E006900630073000000F4
:101AF0000403090409024300020100C03209040082
:101B0000000102020100052400100105240100016A
:101B1000042402020524060001070582030800FFD1
:101B200009040100020A000000070503024000004A
:101B3000070581024000000012010002020000407F
:0C1B400083044057000201020301000072
:101B4C001A03530054004D00330032000000000013
:101B5C0000000000000000000000000000C20100B6
:101B6C000000080011130008311300082D120008A2
:101B7C004112000845120008AD120008D1120008ED
:101B8C001114000821140008311400080000000092
:101B9C0040000000381B000812000000F41A000876
:101BAC0043000000F01A000804000000C81A0008E6
:101BBC0026000000941A00083200000000000020EB
:101BCC001A0000007D0A0008091200087D0A0008AE
:101BDC007D0A00087D0A00087D0A00087D0A0008BD
:101BEC007D0A000821120008040100000100000019
:101BFC0001000000010000007D0A00087D0A0008B9
:101C0C00DD1700087D0A00087D0A00087D0A00081F
:101C1C007D0A0008D11700087D0A00087D0A00081B
:101C2C007D0A00087D0A00087D0A00087D0A00086C
:0400000508000000EF
:00000001FF
