:020000040800F2
:10000000882B0020790E0008750E0008750E000878
:10001000750E0008750E0008750E0008000000003F
:100020000000000000000000000000001947000868
:10003000750E000800000000E1470008D103000829
:10004000750E0008750E0008750E0008750E000884
:10005000750E0008750E0008750E0008750E000874
:10006000750E0008750E0008750E0008D50300080F
:10007000750E0008750E0008750E0008750E000854
:10008000750E0008750E0008750E0008750E000844
:10009000E1030008750E0008750E0008750E0008D3
:1000A000750E0008750E0008750E0008750E000824
:1000B000ED030008750E0008750E0008750E0008A7
:1000C000750E0008750E0008750E0008750E000804
:1000D000750E0008750E0008750E0008750E0008F4
:1000E000750E0008750E0008750E0008000000006F
:1000F0000000000000000000000000000000000000
:1001000000000000000000005FF808F12DE9F04158
:100110000646006882B0C40717D483070DD410F0D8
:10012000100007D03C49F2684B68002023F480039C
:1001300013434B6002B0BDE8F0813749B3684A68A9
:1001400022F4404213434B60E9E7334A334BD16911
:100150001C4641F08051D161D26902F08052019277
:10016000019A1A6842F480721A6000F01DF905467F
:1001700004E000F019F9401B642829D82368D80549
:10018000F7D5254C7368226A534013F4407F1DD085
:10019000216A4FF4803321F4407593FAA3F2B2FA46
:1001A00082F21F48012740F8227093FAA3F3B3FAB2
:1001B00083F30022890740F8232025620CD41649D6
:1001C00073680A6A22F4407213430B623068A4E732
:1001D000032002B0BDE8F08100F0E6F84FF002081D
:1001E000074641F288350FE0626A98FAA8F3B3FA3D
:1001F00083F303F01F0322FA03F3DA07DFD400F0DE
:10020000D3F8C01BA842E3D898FAA8F398FAA8F349
:10021000002BE9D0226AE8E700100240007000409D
:100220000004424270B50646404D86B028686968B1
:10023000AA68EB682D8A02AC022E0FC4ADF80450F8
:1002400050D0102E1CD0012E02D0002006B070BD60
:1002500040F2023236490B6A1A40B2F5817F54D01F
:1002600003F44073B3F5007F57D0B3F5407FECD172
:100270000B684FF2244013F4003F08BF0020E5E76D
:100280002B494C68086810F08070DFD04FF4701371
:1002900093FAA3F3B3FA83F204F47013D34006AADB
:1002A0001344E20313F8103C33D549684FF400328D
:1002B00092FAA2F2B2FA82F001F40032C24006A928
:1002C0000A4412F8140C1B4AB2FBF0F003FB00F0D6
:1002D000174B5B685B02B9D4174B4000A3FB00309F
:1002E0004008B3E700F0AEFD114A4FF48043526876
:1002F00093FAA3F3B3FA83F102F44043CB40013302
:100300005B00B0FBF3F006B070BD4FF4004006B0E8
:1003100070BD0A4800FB03F0DAE74B6A49F640403B
:1003200013F0020F08BF002090E700BF78600008BC
:100330000010024000127A00ABAAAAAA00093D00F0
:100340004FF4807393FAA3F3B3FA83F39B0003F1A2
:10035000844303F5602301221A60704710B50446F8
:1003600000F054FD064BA3FB0030800900F09AF822
:10037000214600224FF0FF3000F050F8002010BD61
:10038000D34D6210074A08B51368032043F01003E9
:10039000136000F031F80F20FFF7E0FF03F0AAFD33
:1003A000002008BD00200240014B1868704700BFC4
:1003B000A409002010B582B00190FFF7F5FF0446B4
:1003C000FFF7F2FF019B001B9842F9D302B010BD6A
:1003D00003F0B6BE014803F0EFB900BFF41D0020E2
:1003E000014801F04FB800BF7C200020014804F014
:1003F00043BF00BF401E00204FF6FF020649000227
:10040000CB6800F4E0601A4042F0BF6343F400336D
:100410000343CB60704700BF00ED00E0194B30B4E0
:10042000DB68C3F30223C3F10705042D03F10404C1
:1004300028BF0425062C18D9033B01249C40013C0D
:1004400022400124AC40013C214001FA03F3002882
:1004500042EA03020CDB120100F16040D2B200F567
:10046000614080F8002330BC704700221346E8E763
:10047000054B00F00F001201D2B203441A7630BCD3
:10048000704700BF00ED00E0FCEC00E000F01F0151
:100490000123034A40098B4042F82030704700BFD7
:1004A00000E100E00138B0F1807F0DD230B4074B9D
:1004B000074CF0255860002284F82350072110468D
:1004C00030BC9A60196070470120704710E000E06E
:1004D00000ED00E0044A042813680CBF43F0040355
:1004E00023F004031360704710E000E080B143790B
:1004F00010B503F0FF0204461BB101236371002015
:1005000010BD027103F056FD01236371002010BD80
:100510000120704710B510B30368DA68D1071BD407
:10052000427B044602F0FF01DAB145F25552022146
:1005300061731A605968626821F007010A435A60C2
:100540009A68A16822F47F6222F00F020A43012117
:100550009A600020617310BDDA689207E0D501202F
:1005600010BD017303F03CFD2368DEE7104B10B4AF
:100570001968104A41F00101196059680E480A4093
:100580005A601A684FF41F0422F0847222F48032F9
:100590001A601A684FF0006122F480221A605A68CB
:1005A00022F4FE025A609C60816010BC704700BF5C
:1005B000001002400000FFF800ED00E02DE9F041DE
:1005C000036882B0DF07044665D5BE494A6802F079
:1005D0000C02042A00F025814A6802F00C02082A65
:1005E00000F01B81B74B4FF400371A681D4622F408
:1005F00080321A601A6822F480221A60FFF7D4FE53
:10060000064605E0FFF7D0FE801B642800F21F813C
:1006100097FAA7F3AB492A6897FAA7F3B3FA83F3DB
:1006200003F01F0322FA03F3D807EBD46368B3F592
:10063000803F11D0002B00F0B681B3F5A02F0B68DE
:1006400007D023F480330B600B6823F480230B6006
:1006500006E043F480230B600B6843F480330B60A7
:10066000FFF7A2FE4FF400370646964D05E0FFF770
:100670009BFE801B642800F2EA8097FAA7F32A68A1
:1006800097FAA7F3B3FA83F303F01F0322FA03F3F5
:10069000DA07ECD52368980742D58A4A516811F0E9
:1006A0000C0F00F0A480516801F00C01082900F043
:1006B0009A802269002A00F05081012292FAA2F366
:1006C000B3FA83F39B0003F1844303F584031A60B8
:1006D000FFF76AFE022706467A4D05E0FFF764FE43
:1006E000801B642800F2B38097FAA7F375492A6843
:1006F00097FAA7F3B3FA83F303F01F0322FA03F385
:10070000DB07EBD50B68F82292FAA2F2B2FA82F27A
:10071000606923F0F80300FA02F213430B602368C8
:10072000190736D45D0700F1D180E3696BB3654DDD
:100730006A6802F00C02082A6BD0022B4FF080731B
:1007400000F0548193FAA3F3B3FA83F39B0003F10F
:10075000844303F5840300221A60FFF725FE4FF05F
:100760000074064604E0FFF71FFE801B64286ED865
:1007700094FAA4F32A6894FAA4F3B3FA83F303F087
:100780001F0322FA03F3DB07EDD4002002B0BDE81B
:10079000F081A269002A5ED0012292FAA2F3B3FA94
:1007A00083F34949022741F82320FFF7FDFD454D1A
:1007B000064604E0FFF7F8FD801B642847D897FA47
:1007C000A7F397FAA7F36A6A97FAA7F3B3FA83F342
:1007D00003F01F0322FA03F3DA07EBD50120FFF73A
:1007E000E9FD23689EE75268D1033FF562AF02221C
:1007F00092FAA2F13349096892FAA2F2B2FA82F2AD
:1008000002F01F0221FA02F2D20748D52269012A1A
:1008100045D0012002B0BDE8F0814A68D6037FF5DB
:10082000E1AE4FF4003292FAA2F12649096892FA39
:10083000A2F2B2FA82F202F01F0221FA02F2D50706
:100840007FF529AF6268002A7FF425AFE1E7032036
:1008500002B0BDE8F081012393FAA3F3B3FA83F366
:100860001949022741F82320FFF79EFD154D064642
:1008700004E0FFF799FD801B6428E8D897FAA7F3F6
:1008800097FAA7F36A6A97FAA7F3B3FA83F303F028
:100890001F0322FA03F3DB07EBD4236842E7094D79
:1008A000F822296892FAA2F2B2FA82F2606921F083
:1008B000F80100FA02F20A4319072A607FF532AF05
:1008C00067E700BF0010024080044242AF4AB04BCD
:1008D000D1691D4641F08051D161D26902F0805248
:1008E0000192019A1A6842F480721A60FFF75CFD67
:1008F000064604E0FFF758FD801B6428A7D82B6844
:10090000D805F7D5A14B4FF002081A6A1D4622F010
:1009100001021A621A6A41F2883722F004021A624E
:10092000FFF742FD064610E06A6A98FAA8F3B3FAA8
:1009300083F303F01F0322FA03F3D90740F1AF80DA
:10094000FFF732FD801BB84281D898FAA8F398FAD5
:10095000A8F3002BE8D02A6AE7E7012393FAA3F370
:10096000B3FA83F39B0003F1844303F584031A6015
:10097000FFF71AFD02270646844D05E0FFF714FD38
:10098000801B64283FF663AF97FAA7F32A6897FAAB
:10099000A7F3B3FA83F303F01F0322FA03F3D80794
:1009A000ECD42368BCE60B680D4623F480330B605F
:1009B0000B684FF4003723F480230B60FFF7F4FC3F
:1009C000064605E0FFF7F0FC801B64283FF63FAFCA
:1009D00097FAA7F32A6897FAA7F3B3FA83F303F019
:1009E0001F0322FA03F3DB07ECD453E693FAA3F3D5
:1009F000B3FA83F39B0003F1844303F584030022DD
:100A00001A60FFF7D1FC4FF00077064605E0FFF7CC
:100A1000CBFC801B64283FF61AAF97FAA7F35B491B
:100A20002A6897FAA7F3B3FA83F303F01F0322FAB5
:100A300003F3D807EBD4206AB0F5803F00F096802E
:100A4000524D626A6B68024323F4741313436B6064
:100A50004FF0807393FAA3F3B3FA83F39B0003F18F
:100A6000844303F5840301221A60FFF79DFC4FF0D5
:100A70000074064605E0FFF797FC801B64283FF6EC
:100A8000E6AE94FAA4F32A6894FAA4F3B3FA83F3D3
:100A900003F01F0322FA03F3DA07ECD575E6E368E7
:100AA000012B5DD06BB3052B384B1A6A65D022F051
:100AB00001021A621A6A22F004021A62FFF774FC39
:100AC0004FF002080746314D41F2883611E06A6A5C
:100AD00098FAA8F3B3FA83F303F01F0322FA03F39F
:100AE000DA073FF522AEFFF75FFCC01BB0423FF6CE
:100AF000AEAE98FAA8F398FAA8F3002BE7D02A6ACA
:100B0000E6E703F1804303F504331A6A1D4622F039
:100B100001021A621A6A4FF0020822F004021A62F5
:100B2000FFF742FC41F28837064611E06A6A98FAFC
:100B3000A8F3B3FA83F303F01F0322FA03F3DB07EE
:100B40007FF5F3ADFFF730FC801BB8423FF67FAE78
:100B500098FAA8F398FAA8F3002BE7D02A6AE6E7F8
:100B60000A4A136A43F001031362A7E74A68A368BD
:100B700022F4003213434B6062E742F004021A622F
:100B80001A6A42F001021A6298E700BF00100240A0
:100B900000700040764A2DE9F04113680C4603F0DE
:100BA00007038B4205460CD2136823F007030B435F
:100BB0001360136803F00703994265D00120BDE874
:100BC000F08103689E0706D56A48AA68416821F04B
:100BD000F0010A434260D80731D56A68012A00F063
:100BE000B280022A0CBF4FF00073022393FAA3F1E4
:100BF0006049096893FAA3F3B3FA83F303F01F0380
:100C000021FA03F3D907D9D55A4E41F288387368CF
:100C100023F003031A437260FFF7C6FB6B680746B5
:100C2000012B74D0022B06D17CE0FFF7BDFBC01B6B
:100C3000404500F28B80736813F00C0FF5D14C4ADD
:100C4000136823F0070323431360136803F00703BB
:100C50009C42B3D12B685A0706D54648EA684168DA
:100C600021F4E0610A4342601B0707D5414A296924
:100C7000536823F4605343EAC10353600F20FFF726
:100C80006DFB0020BDE8F0810368990706D539485F
:100C9000AA68416821F0F0010A434260DA07DAD518
:100CA0006A68012A60D0022A0CBF4FF00073022349
:100CB00093FAA3F12F49096893FAA3F3B3FA83F3E4
:100CC00003F01F0321FA03F3DF077FF577AF294C09
:100CD00041F28837636823F003031A436260FFF729
:100CE00063FB6B680646012B27D0022B05D135E04C
:100CF000FFF75AFB801BB84228D8636813F00C0F2B
:100D0000F6D1A7E7FFF750FBC01B40451ED873681C
:100D100003F00C03042BF5D191E7FFF745FBC01B53
:100D2000404513D8736803F00C03082BF5D186E710
:100D3000FFF73AFB801BB84208D8636803F00C0346
:100D4000042BF5D186E74FF400334FE70320BDE8CD
:100D5000F081FFF729FB801BB842F7D8636803F0E6
:100D60000C03082BF5D175E74FF40033A0E700BF63
:100D7000002002400010024030B4204D86B0696867
:100D8000AA68EB68286802AC0FC42D8A1C49ADF82C
:100D900004504B6803F00C02082A14D14FF470126F
:100DA00092FAA2F2B2FA82F003F47012C24006A8DC
:100DB0000244DB0312F8102C09D4124800FB02F0A5
:100DC00006B030BC7047104806B030BC7047496868
:100DD0004FF4003393FAA3F3B3FA83F001F4003332
:100DE000C34006A90B4413F8140C074BB3FBF0F0F7
:100DF00002FB00F006B030BC704700BF8C600008FA
:100E00000010024000093D0000127A0008B5FFF70B
:100E1000B3FF094AF023526893FAA3F3B3FA83F3BA
:100E200002F0F002054922FA03F30B441A7D044B49
:100E3000D040186008BD00BF001002408C60000860
:100E40000000002008B5FFF7E1FF084A4FF46053A7
:100E5000526893FAA3F3B3FA83F302F4605204499D
:100E600022FA03F30B441B7DD84008BD001002405A
:100E70008C600008FEE700BF08B5104A104B9A428C
:100E80000DD2D0430F4918440B4620F00300043024
:100E9000084453F8041B834242F8041BF9D10A4862
:100EA0000A494FF000028842B8BF40F8042BFADB31
:100EB000FFF75CFBBDE8084000F076BF00000020B3
:100EC000A40900206C610008A409002088270020E4
:100ED000F0B490F8243082B00246012B4FF00000AD
:100EE000019000F08A804B680120062B82F82400D4
:100EF0004FF4787510683FD8476B95FAA5F6B6FAA7
:100F000086F6013B0C6895FAA5F5B5FA85F503FB65
:100F100006F603FB05F31F2505FA06F604FA03F3AC
:100F200027EA06073B434363092C41D9C7683825A4
:100F300095FAA5F6B6FA86F6A4F10A0395FAA5F590
:100F4000B5FA85F503FB06F603FB05F3896807256B
:100F500005FA06F601FA03F327EA06073B43C360E6
:100F6000A4F11003012B3FD900231846002182F879
:100F7000241002B0F0BC70470C2B42D8076B95FAD6
:100F8000A5F6B6FA86F6073B0C6895FAA5F5B5FA0C
:100F900085F503FB06F603FB05F31F2505FA06F6A8
:100FA00004FA03F327EA06073B43092C0363BDD881
:100FB0000669382393FAA3F5B5FA85F593FAA3F3F6
:100FC000B3FA83F304FB05F504FB03F389680727F1
:100FD00007FA05F501FA03F326EA05052B43036139
:100FE000A4F11003012BBFD8214B984222D0916A63
:100FF000012341F020019162B7E7022002B0F0BC6A
:101000007047C76A95FAA5F6B6FA86F60D3B0C68E6
:1010100095FAA5F5B5FA85F503FB06F603FB05F38E
:101020001F2505FA06F604FA03F327EA06073B43F1
:10103000C36279E783681B0296D48368102C43F45B
:101040000003836090D10B4B0B491B68A1FB03137A
:101050009B0C03EB83035B000193019B002B83D06C
:10106000019B013B0193019B002BF9D17CE700BF61
:10107000002401400000002083DE1B4338B50368D4
:101080009A68D20701D4002038BD9A68044622F03D
:1010900001029A60FFF788F9054623689B68DB0721
:1010A000F1D5FFF781F9401B0228F6D9A36A012088
:1010B00043F01003A362E36A0343E36238BD00BF59
:1010C000002800F08380836A70B50446002B4ED060
:1010D0002046FFF7D3FFA36A13F0100FA36A41D194
:1010E00000283FD123F4885323F0020343F0020386
:1010F000A362E168022393FAA3F3B3FA83F365686A
:10110000E269A66801FA03F32A43B6F5807F42EA52
:101110000302636931D0012E0CBF4FF480750025A6
:10112000012B2ED021683D4B4E6826F4694635438D
:101130004D608D682B4013438B60CD6A384B25F48E
:1011400070052843C86289680B409A4240D0A36A60
:10115000012023F0120343F01003A362E36A034368
:10116000E36270BD43F010030120A36270BDC3624F
:1011700080F8243002F0E2FEAAE7012B08BF3546D2
:101180003CD171B3A36A43F02003A362E36A43F046
:101190000103E3622168214B4868B6F5807F20F4A3
:1011A000694045EA00054D60886803EA000343EAA8
:1011B00002038B602FD14FF4700090FAA0F0B0FAC8
:1011C00080F02369013B03FA00F0B6E70120704785
:1011D0000020E062A36A23F0030343F00103A3624B
:1011E00070BD4FF4604393FAA3F3B3FA83F1A3699C
:1011F00045F40065013B8B401D43CBE72168074B5D
:10120000486820F4694040F4807048608868034072
:1012100013438B60CFE700208FE700BFFDF7E1FFAE
:10122000FE0E1FFF002869D0F0B590F8E93387B0B3
:10123000044603F0FF02002B5BD02546032384F80D
:10124000E933206801F0CEF855F810EB6F462E46D2
:101250000FCE0FC73368261D3B6096E80E00704620
:1012600001F0AEF80021206801F0C6F80021084620
:1012700023462246012782F82810918601310F2942
:1012800082F8297082F82B009063D063106402F119
:101290002002F0D10022114683F808229A860132FA
:1012A0000F2A83F8091283F80B12C3F81812C3F837
:1012B0001C12C3F820124FF0000703F12003EBD1FA
:1012C000EE460FCDD4F800C0AEE80F002B686046A4
:1012D000CEF8003096E80E0001F090F8012384F873
:1012E0002470206884F8E93301F0F8FC384607B030
:1012F000F0BD80F8E82302F0A7FC9EE701207047CC
:1013000090F8E823012A01D10220704710B5044665
:10131000012180F8E81302F091FD206801F0DCFC67
:10132000206801F055F8002084F8E80310BD00BFE4
:1013300090F8E823012A01D10220704710B5044635
:10134000012284F8241080F8E823006801F0BEFC34
:10135000002084F8E80310BD38B5CCB225061AD4B5
:101360000D4600EB411101F50271E4094C700D705E
:10137000CB7090F8E8330A61012B01D1022038BD0F
:101380000446012380F8E833006801F04BF80020A0
:1013900084F8E80338BD01F07F0500EB45112831E2
:1013A000E3E700BFCBB21A0619D40A4600EB41119D
:1013B00001F50271DB094B700A7090F8E833012BDC
:1013C00001D10220704710B50446012380F8E833AC
:1013D000006801F0CDF9002084F8E80310BD01F0A9
:1013E0007F0200EB42112831E4E700BF70B501F045
:1013F0007F06750144190021C4F81C22C4F820326C
:1014000084F80862C4F8241284F8091290F8E833CA
:10141000012B0DD00446012305F50275411980F812
:10142000E833006801F08EFA002084F8E80370BD0C
:10143000022070BD01F07F0100EB4110B0F82402E2
:10144000704700BFF8B501F07F0675014419012708
:101450000021E263236484F82860616484F82970C1
:1014600090F8E833BB420BD004462835411980F888
:10147000E873006801F066FA002084F8E803F8BD1C
:101480000220F8BD2DE9F043044683B0006801F066
:1014900027FC010444D4206801F022FC460500F139
:1014A0000282206801F01CFC10F4804F206807D0F5
:1014B000B0F8443023F480431B041B0CA0F84430E4
:1014C00001F00EFC10F4005F206807D0B0F8443043
:1014D00023F400531B041B0CA0F8443001F000FC63
:1014E000C50400F1C681206801F0FAFB000500F197
:1014F0009F81206801F0F4FB820500F18C81206857
:1015000001F0EEFBC30508D52268B2F8443023F49D
:1015100080731B041B0CA2F8443003B0BDE8F083B9
:1015200000232068ADF8043004F57B76ADF8063072
:10153000B0F844309BB21F04ADF80430ACD5BDF810
:10154000042012F00F075AD1BDF80410038801F0EF
:10155000100189B2002900F09F809BB2ADF80630DF
:10156000BDF806301A0500F13681BDF806301B04BF
:10157000DED5038823F070031B051B0D0380B0F834
:10158000503094F808229BB203EBC20300EB4303F4
:10159000D3F80C34C3F30903C4F82432002B40F011
:1015A0000B820021204602F075FB2068D4F8185207
:1015B000B0F850303E2D9BB200F5806103F1060378
:1015C00040F2D381C5F34F12EF0604BF02F1FF32A0
:1015D00092B26FEAC2626FEA524292B241F81320AD
:1015E000038823F4804323F070031B041B0C83F453
:1015F000405343F4004343F08003038098E730F8FE
:1016000027309BB2ADF80630BDF80630190471D40E
:10161000BDF806301A068BD530F827307D0123F44B
:10162000E14323F070031B041B0C20F8273004EB6C
:10163000050E9EF83230002B40F0AA80B0F85030F2
:101640009EF828209BB203EBC203023300F58061B1
:1016500051F8133004EB4712C3F309035364002B12
:1016600040F079812544B0F8503095F828209BB29D
:1016700003EBC203023351F81310EA6BC1F3090103
:101680002B6C0A446964EA6395F8281020466BBB0A
:1016900002F008FB20684BE723F4E14323F07003DA
:1016A0001B041B0CE26B0380B0F8503094F82850F8
:1016B0009BB203EBC50300EB4300D0F80434204693
:1016C000C3F309031A446364E26302F0EBFA94F88B
:1016D00024306BB1236C5BB994F82420206842F06D
:1016E0008002A0F84C2084F8243021E7FFF7AAFEFE
:1016F00020681DE730F827307D0123F070031B05BB
:101700001B0D20F8273004EB050999F81232002B45
:1017100000F0E78099F8083230F8231000EB8302DC
:1017200011F4804FB0F8501089B201EBC30300EB05
:10173000430300F02581D3F80434C3F30908B8F15A
:10174000000F40F05181138823F0F0031B051B0D9F
:1017500043F4004343F0C00313806119D1F824021D
:10176000D1F81C22D1F8203240444244C1F824026E
:10177000C1F81C2223B1D1F81802804580F01581F0
:101780002544204695F8081202F084FA20683FE7C5
:101790009EF828C030F82C305B0640F1BB80B0F8D2
:1017A000501004EB471289B201EBCC03023300F571
:1017B000806151F81330C3F309035364002B00F028
:1017C000BA80DEF83C10BEF82E2001F08FFA2068B7
:1017D00000F58061AFE0B0F8503094F808229BB279
:1017E00003EBC20300EB4303D3F80C34B4F80C2230
:1017F000C3F30903C4F82432314601F089FA2268A0
:101800002046138823F070031B051B0D138002F084
:101810003BFA20688CE622682046B2F8443023F474
:1018200000731B041B0CA2F8443002F043FA66E676
:101830002368B3F84420184622F400621204120C04
:10184000A3F84420B3F8402092B242F00802A3F873
:101850004020B3F8402092B242F00402A3F84020A6
:1018600001F03EFAC1043FF544AE204602F034FADE
:101870003FE622684FF43D41B2F84030204623F065
:1018800004031B041B0CA2F84030A2F8401002F025
:1018900033FA2068B0F8443023F480531B041B0C47
:1018A000A0F8443020E622682046B2F8443023F401
:1018B00080631B041B0CA2F8443002F0FFF994F87B
:1018C000E833012B3FF4EDAD0025012384F8E83324
:1018D00084F824502946206801F0F8F984F8E85388
:1018E000DFE5B0F8503099F808229BB203EBC20351
:1018F00000EB4303D3F80C34C3F30908B8F1000F2D
:101900003FF42BAF4346B9F80C22D9F81C1201F072
:10191000FFF922E7B0F8503000F580619BB203EB8D
:10192000CC03063351F8133004EB4712C3F3090319
:101930005364002B4ED1631993F8282030F82230DD
:1019400023F0F0031B051B0D43F4404343F08003D9
:1019500020F8223086E6DEF83C10BEF82C2001F09C
:10196000C5F9206800F580617CE6C5F34F02ED07FC
:1019700044BF013292B2920292B241F813202FE694
:10198000D3F80C34C3F30908B8F1000F3FF4DBAE11
:101990004346B9F81022D9F81C1201F0B9F999F8A8
:1019A0000822236803EB8202CDE691F80812204654
:1019B000FFF71CFD20682BE6B4F80C22D4F81C12AB
:1019C00001F0A6F9D4F81C22D4F824321344C4F848
:1019D0001C32E6E5DEF83C10BEF8302001F086F956
:1019E000206800F58061A6E74346B9F80E22D2E7E9
:1019F00038B5CBB21A061AD40D4600EB411101F5E9
:101A00000271DB0901224B700D708A7090F8E83387
:101A1000934201D1022038BD044680F8E8230068D3
:101A200001F0CAF84DB1002084F8E80338BD01F098
:101A30007F0500EB45112831E3E704F57B71206851
:101A400001F052F9EFE700BF38B5CBB21A061AD44D
:101A50000A4600EB411101F50271DB0900254B70CC
:101A60000A708D7090F8E833012B01D1022038BD47
:101A70000446012380F8E833006801F0D7F884F8C1
:101A8000E853284638BD01F07F0200EB42112831AF
:101A9000E3E700BF88B108B5D0F8143213B10023D2
:101AA000C0F8143209B1C0F810120123027080F896
:101AB000FC3102F025F9002008BD0220704700BF6C
:101AC00019B1C0F81412002070470220704700BFFF
:101AD00008B502F055F9002008BD00BF08B5D0F8E0
:101AE000143213B11B68984708B1022008BD08BD25
:101AF00008B5D0F814325B689847002008BD00BFD5
:101B000038B5044600F50275284603F043FF94F803
:101B100008120120B4F80E2201F01F038342C4F81A
:101B2000F401C4F8F82115D00ED3022B06D001F031
:101B30008001204602F03EF9002038BD29462046AB
:101B400003F0C0FE002038BD2946204603F04CFDBE
:101B5000002038BD2946204603F096FE002038BDFF
:101B600010B5044631B91346D0F8F421032A0CD03D
:101B7000002010BDD0F814329B69002BF8D090F8EB
:101B8000FC21032AF4D19847F2E7D0F80C11D0F8E1
:101B9000102191420CD8D0F814321B691BB190F877
:101BA000FC21032A0FD0204603F0F0FF002010BDD7
:101BB000891A8A4228BF0A46C0F80C1192B2194607
:101BC00003F0DCFFD4E79847EDE700BF70B50446AB
:101BD00051B91346D0F8F421022A15D094F80032F6
:101BE000012B0CD0002070BDD0F814325B69002BA3
:101BF000F8D090F8FC21032AF4D19847F2E70023AB
:101C000084F80032002070BDC669026A964223D86B
:101C10008369B3FBF2F502FB15358DB99A420FD8F3
:101C2000D0F8F82193420BD22A4603F08FFFC4F874
:101C3000F8512B462A462946204602F0EBF8CDE71C
:101C4000D4F81432DB681BB194F8FC21032A0BD0C2
:101C5000204603F0A7FFC1E7B21A0D46C26119463C
:101C600092B203F073FFE4E720469847F0E700BF25
:101C700038B5402304461D460022114602F088F87C
:101C80002B460022C4F810512046802102F080F833
:101C9000D4F818320122256284F8FC212BB1D4F843
:101CA000143221795B6820469847002038BD00BF78
:101CB00001740020704700BF90F8FC21042380F8D5
:101CC000FD2180F8FC310020704700BF034690F8EA
:101CD000FD21002083F8FC21704700BF90F8FC2113
:101CE000032A01D00020704708B5D0F81432DB6910
:101CF00003B19847002008BD08B503F05FFF01203D
:101D000002F012FAFBE700BF08B54FF40051044897
:101D100001F026FD4FF4FA7002F006FAF5E700BF75
:101D20000010014070B594B000244FF480320123BC
:101D300002254FF4E0110D260AA80B9212920D9382
:101D4000109313910A960C941195FEF737FC2946CF
:101D500005224FF4806305A8059208930695079421
:101D60000994FEF717FF13214FF480724FF40043DC
:101D700001A80191029203930494FEF7C7F9FFF7BB
:101D800045F8084BA3FB00308009FEF78BFB0420CD
:101D9000FEF7A0FB22460F214FF0FF30FEF73EFB7F
:101DA00014B070BDD34D62102DE9F04FAD4C97B01B
:101DB000FEF7E8FAFFF7B6FFA369012643F0100328
:101DC000A361A3694FF4005203F010030493049B32
:101DD000A369032743F02003A361A3690FA903F0BC
:101DE00020030593059BA3699F4843F00403A36167
:101DF000A3699E4D03F004030693069BA3694FF06D
:101E0000050943F00803A361A3690F9203F00803D7
:101E10000793079B1096129701F0B6FB63690022A7
:101E20003343636163690521334003930B20039BB4
:101E3000FEF7F4FA0B20FEF729FB8D4900244FF43E
:101E400080724FF460232846AA60EB61EE6029603F
:101E5000C5F810906C616C60FFF732F90FA9284645
:101E60004FF0020810960F941194FFF731F80FA964
:101E700028460F96CDF84080FFF72AF80FA928468C
:101E80001097CDF83C800427FFF722F84FF0100898
:101E90000FA92846CDF83C801097FFF719F80FA935
:101EA00011232846CDF840900F93FFF711F8714B9E
:101EB000714A18461A60FEF719FB40F6FF726F4B25
:101EC0006F49704D184683E812009A60FEF722FBB6
:101ED0006D4A4FF0FF33284685E81C0003F02EF8CA
:101EE000324628460AA98DF828608DF829408DF8D9
:101EF0002A4002F007FF324628460FA98DF83F809E
:101F00008DF83C608DF83D608DF83E6002F072FF08
:101F100048F69F424FF6FF7A5C4D4FF47A734FF0CC
:101F20008041284685E80600EB604FF48059AC609C
:101F30002C6103F089FA0FA92846554ECDF83C9044
:101F400003F0D0F80AA928460A940B9403F052FE35
:101F5000504A4FF43473304686E80C000193B46065
:101F60003461C6F80CA003F06FFA0AA930460DF1EF
:101F70002008CDF8289003F0B5F8304603F080FA39
:101F8000304641464FF0600B0894099403F032FE4E
:101F900022460FA93046109411941394CDF83CB00A
:101FA00003F0B8FA3A460FA930463B4D03F0B2FAB7
:101FB0000FA93046082203F0ADFA019B374A2846A4
:101FC0006B602A60AC60C5F80CA02C6103F03CFA91
:101FD0000AA92846CDF8289003F084F8284603F093
:101FE0004FFA414628460894099403F003FE22461E
:101FF0000FA92846CDF83CB010941194139403F027
:1020000089FA3A460FA9284603F084FA2846244D57
:102010000FA9082203F07EFA0FCD2E460AAF0FC794
:1020200056F8043B21460AA83B6002F061F81D4BBC
:102030000FAF18600FCE0FC7336821460FA83B6063
:1020400002F056F8184B1835186095E8030088E838
:1020500003002146404602F06FF8144B186002F06E
:1020600041F8FEE70010024000100140C41D0020AE
:1020700000240140781D002000300240681D00202F
:10208000003000402C1E002000280040401E002090
:10209000881D0020000400402C1D00200008004086
:1020A000B0600008281D0020841D0020801D002035
:1020B000F8B5124C02F064FB25681DB1BDE8F8408C
:1020C00002F07CBB271D384604F1180601F0B8FE6B
:1020D000304601F0B5FE2A460C210A20E76226634D
:1020E00002F004F9206030B1054902F0BFFABDE802
:1020F000F84002F063BB02F02DFBFEE7A8090020C8
:10210000FC600008914208B50061416005D8816912
:10211000D21A8A420CD3012008BD9A4201D29942B8
:10212000F9D2074B011DD86A01F0A8FE002008BDB6
:10213000034B011D186B01F0A1FE002008BD00BF7C
:10214000A809002000B585B0FFF7B2FF0A4B1B6855
:1021500073B1002303228DE80C00039302938022C5
:102160000649074800F00EFE10B105B05DF804FB0B
:1021700002F0F0FAFEE700BFA809002004610008A1
:102180005522000830B5144D85B02C6804B30529DC
:102190000191029203900BDC01F042F902280FD06A
:1021A000002328681A4601A902F0C8F805B030BD1E
:1021B0001A462046002301A902F05AF905B030BDA5
:1021C00028680023089A01A902F0B8F805B030BDCC
:1021D000204605B030BD00BFA80900202DE9F0431E
:1021E0001B4E83B04FF00008B1460CE0DB68DC68A2
:1021F0001F68251D284601F05BFE636A204698474C
:10220000E369012B0AD0F36A11491A68002AEDD15B
:102210000A6B0B63CA6203B0BDE8F083A2690023B6
:102220003A44974207D2626024612946D9F82C00CB
:1022300001F024FEE7E7CDF800803A462046194633
:10224000FFF7A0FF0028DED102F084FAFEE700BF0E
:10225000A80900202DE9F043584C87B027464FF0DD
:102260000108E36A1E68002E3DD0DB681E6800F09E
:1022700089FE00F091FE7B6B054698423BD3864277
:10228000786346D9711B206802F006FA00F01CFF43
:1022900000283BD000231A4603A9206802F040F929
:1022A0000028DED0039B002BF4DB059E736913B17D
:1022B000301D01F0FDFD00F06FFE636B0546984296
:1022C00021D3039B6563092BE4D808FA03F313F4C5
:1022D000047966D113F0C70F44D19B06DAD5304696
:1022E00003F020FCD6E700F04DFE00F055FE7B6BBE
:1022F0000546834205D9FFF771FF656300F0E4FEF0
:10230000C8E77D63BEE7FFF769FFDAE702F016FA78
:10231000C0E700F0D9FEFB6ADB68D3F80C9009F146
:10232000040001F0C5FDD9F81C30012B04D0D9F808
:10233000243048469847ADE7D9F818102A4631446A
:1023400033464846FFF7DEFE0128F0D1002332462F
:10235000009319464846FFF715FF0028E7D102F021
:10236000F9F9FEE7049BB1692A4619443046FFF7A4
:10237000C9FE01288ED1736A30469847F369012B54
:1023800088D1B369049A30461A44CDF800904B4680
:102390004946FFF7F7FE00287FF47CAF02F0DAF938
:1023A000FEE70499B16131B1294430462B462A46F3
:1023B000FFF7A8FE6EE702F0CDF9FEE7A8090020BE
:1023C00084B001A880E80E0004B00020704700BF70
:1023D0000246B0F8403000209BB243F43D43A2F8DF
:1023E0004030704744F2FF210246B0F840300020F0
:1023F0000B40A2F8403070470020704784B070B4A2
:1024000004460025012004AEA4F8400086E80E0032
:10241000A4F840502846A4F84450A4F8505070BC8A
:1024200004B07047CB7830B4032B10D8DFE813F03A
:102430007601690104005C010A7830F8223023F447
:10244000EC4323F070031B041B0C20F822300C78A3
:1024500030F8243044F4004223F0F0031B051B0D38
:1024600042F08002134320F824308B7A002B37D1BE
:102470004B78002B00F0EE80B0F850300C788A8852
:102480009BB203EBC403520800EB43035200C3F8B2
:1024900000240C7830F8243000EB84025B060ED563
:1024A00030F8243023F0F0031B051B0D43F40043E8
:1024B00043F0C00320F824300A7800EB820213882E
:1024C000002023F4E04323F040031B041B0C83F0A3
:1024D000200343F4004343F08003138030BC704773
:1024E0000A7800F5806430F8223023F4F8731B0575
:1024F0001B0D43F4014343F0800320F82230B0F871
:102500005030CA880D789BB2520803EBC5035200C5
:1025100044F81320B0F850300D780A899BB203EBD1
:10252000C50352080433520044F813204B780C784A
:10253000002B4FD130F8243000EB84025D040ED51F
:1025400030F8243023F0F0031B051B0D43F4404307
:1025500043F0800320F824300A7800EB82021388CD
:102560005B060CD5138823F0F0031B051B0D43F409
:10257000004343F0C00313800A7800EB8202138803
:1025800030BC23F0F0031B051B0D43F4004343F064
:10259000C00313800A7830F8223023F4804323F0FC
:1025A00070031B041B0C83F4405343F4004343F0BB
:1025B000800320F822300A7830F8223023F0C0035C
:1025C0001B051B0D43F4004343F0800320F8223029
:1025D0000020704730F8243000EB84025D040ED5F3
:1025E00030F8243023F0F0031B051B0D43F4404367
:1025F00043F0800320F824300A7800EB820213882D
:102600005B0600F1988030BC138823F0F0031B05B3
:102610001B0D43F4404343F0800313800A7830F8E5
:10262000223023F0C0031B051B0D43F4004343F08D
:10263000800320F822300A7830F8223023F0F003AB
:102640009B049B0C43F4004343F0800320F82230AA
:1026500000207047B0F850300C788A889BB203EBAA
:10266000C40352080433520000F5806444F8132078
:10267000B0F850300A780D699BB203EBC2033E2DCF
:1026800003F1060365D8C5F34F02ED0744BF0132DD
:1026900092B2920292B244F813200C7830F82430AF
:1026A00000EB84025B040ED530F8243023F0F003F5
:1026B0001B051B0D43F4404343F0800320F82430F6
:1026C0000A7800EB82021388002023F4804323F071
:1026D00070031B041B0C83F4405343F4004343F08A
:1026E0008003138030BC70470A7830F822309BB2E8
:1026F00023F4EC4323F0700343F4C06320F822304A
:10270000A5E60A7830F822309BB223F4EC4323F09C
:10271000700343F4806320F8223098E60A7830F89A
:1027200022309BB223F4EC4323F0700343F4007394
:1027300020F822308BE6138823F0F0031B051B0DD5
:1027400043F4004343F0C00313800A7800EB820295
:1027500059E7C5F34F12ED0604BF02F1FF3292B202
:102760006FEAC2626FEA524292B244F8132094E7D1
:102770008B7A10B433BB4B780C78002B00F0B1800F
:1027800030F8243000EB84025B060ED530F824309C
:1027900023F0F0031B051B0D43F4004343F0C0037B
:1027A00020F824300A7800EB82021388002023F0FE
:1027B000C0031B051B0D43F4004343F0800313804B
:1027C00010BC70474B780C78002B4BD130F824307C
:1027D00000EB84025B040ED530F8243023F0F003C4
:1027E0001B051B0D43F4404343F0800320F82430C5
:1027F0000A7800EB820213885C060CD5138823F05C
:10280000F0031B051B0D43F4004343F0C00313808A
:102810000A7800EB8202138810BC23F0F0031B053A
:102820001B0D43F4004343F0C00313800A7830F8D3
:10283000223023F0F0039B049B0C43F4004343F04D
:10284000800320F822300A7830F8223023F0C003C9
:102850001B051B0D43F4004343F0800320F8223096
:102860000020704730F8243000EB84025B040ED562
:1028700030F8243023F0F0031B051B0D43F44043D4
:1028800043F0800320F824300A7800EB820213889A
:102890005B0648D4138810BC23F0F0031B051B0D06
:1028A00043F4404343F0800313800A7830F8223029
:1028B00023F0C0031B051B0D43F4004343F08003CA
:1028C00020F822300A7830F8223023F0F0039B04FD
:1028D0009B0C43F4004343F0800320F82230002097
:1028E000704730F8243000EB84025B040ED530F8DA
:1028F000243023F0F0031B051B0D43F4404343F049
:10290000800320F824300A7800EB8202138800202C
:1029100023F0F0039B049B0C43F4004343F080033B
:10292000138010BC7047138823F0F0031B051B0DA8
:1029300043F4004343F0C00313800A7800EB8202A3
:10294000A8E700BF4A78F0B4012A72D08B690C69FD
:10295000A34233D800248C618C7A002C34D1B0F897
:1029600050200C7892B202EBC4023E2B02F1060218
:1029700000F5806540F29780C3F34F14DE0604BF74
:1029800004F1FF34A4B26FEAC4646FEA5444A4B201
:1029900045F812400A78F0BC30F8223023F4804326
:1029A00023F070031B041B0C83F4405343F40043D7
:1029B00043F0800320F82230002070471B1B8B61FE
:1029C00023468C7A002CCAD0002AE3D1B0F85020DC
:1029D0000C7892B202EBC4023E2B02F1020200F527
:1029E000806540F2A2805C09A6B213F01F0704BF05
:1029F00006F1FF36B6B26FEAC6666FEA5646B6B261
:102A000045F812604A78002A40F0C980B0F850308A
:102A10000A789BB203EBC2020632A3B20FB9013BA4
:102A20009BB26FEAC3636FEA53439BB245F812301F
:102A3000B0E78C690B699C4240D800238B618B7A8C
:102A4000002B41D1A3B28A88013300EB42025B1014
:102A50004D6918BF02F2044207D035F8026B013B02
:102A600022F8046C02F10402F7D1B0F850300A7871
:102A70009BB203EBC20300EB4303C3F804440A78A0
:102A8000F0BC30F8223023F4E04323F040031B0471
:102A90001B0C83F0300343F4004343F0800320F821
:102AA000223000207047C3F34F04DB0744BF0134DA
:102AB000A4B2A402A4B245F812406BE7E41A8C61F8
:102AC0001C468B7A002BBDD00E7830F826305F067E
:102AD00048D5B0F8505000F58063ADB205EBC602A2
:102AE00002320E8943F81240A2B20132521003EBB7
:102AF00046064C6918BF002306D034F8025B26F85E
:102B0000235001339342F8D14B78002B36D10A7809
:102B100030F8223023F0F0031B051B0D43F4004373
:102B200043F0C00320F82230A9E75C08A6B213F0F6
:102B300001071CBF0136B6B2B602B6B245F8126044
:102B40004A7862BBB0F850300A789BB203EBC203FC
:102B5000A4B206330FB10134A4B2A402A4B245F862
:102B6000134017E7B0F8502000F5806392B202EBF3
:102B7000C6020232CE8843F81240B5E7012B7FF43B
:102B80007EAF0A7830F8223023F0F0031B051B0DCE
:102B900043F4404343F0800320F822306FE7012ADA
:102BA0007FF4F8AEB0F850200C7892B202EBC40279
:102BB000023245F81230EDE60A782AB34B788BB929
:102BC00030F8223023F4804323F070031B041B0CE5
:102BD00083F4805343F4004343F0800320F8223011
:102BE0000020704730F8223023F4E04323F0400304
:102BF0001B041B0C83F0100343F4004343F08003D9
:102C000020F822300020704703889BB223F48043D1
:102C100023F0400383F4805383F0100343F4004314
:102C200043F0800303800020704700BF4B7810B44E
:102C30000C782BB330F8243000EB84025B060ED501
:102C400030F8243023F0F0031B051B0D43F4004340
:102C500043F0C00320F824300A7800EB8202138886
:102C6000002023F4E04323F040031B041B0C83F0FB
:102C7000300343F4004343F08003138010BC7047DB
:102C800030F8243000EB84025B040ED530F8243099
:102C900023F0F0031B051B0D43F4404343F0800376
:102CA00020F824300A7800EB82021388002023F4F5
:102CB000804323F070031B041B0C83F4405343F444
:102CC000004343F08003138010BC704711B9802388
:102CD000A0F84C300020704700207047002070475B
:102CE000B0F8440080B2704700207047013300F50F
:102CF00080605B1000EB420209D030B4002431F850
:102D0000025B22F824500134A342F8D130BC704752
:102D1000013300F580605B1000EB420205D052F8F1
:102D2000040B013B21F8020BF9D1704708B5034CA5
:102D30002368012BFDD901F001FDF9E7E00900202E
:102D40000E4BD3F88C10D3F89020486090420ED3ED
:102D500010B50446D3F89800D3F88C10043101F074
:102D60008DF8074B1A68944238BF1C6010BDD3F829
:102D70009400D3F88C10043101F080B8E0090020F1
:102D8000380400202DE9F84F0A9F9A46DDF82C8080
:102D90000C9B002800F08880042F02D901F0DAFC97
:102DA000FEE70E46154681469B46002B00F0B0809C
:102DB0005C2002F089FE0446002800F0A280AD00ED
:102DC0002A46C0F830B0A521584602F0BBFF236B5D
:102DD000043D1D4425F00705731E04F133020F3630
:102DE00013F8011F02F8011F197809B1B342F7D196
:102DF000002604F1040B5846E762E76484F8436058
:102E0000266501F029F804F1180001F025F8C7F152
:102E100005036665246184F8586064625246494639
:102E20002846A36101F066FC2060B8F1000F01D0D4
:102E3000C8F800403A4D01F0A3FCD5F89C300133AE
:102E4000C5F89C30D5F88C30B3B3D5F8C83033B959
:102E5000D5F88C30DB6A9F4228BFC5F88C40E06A09
:102E6000D5F8CC30D5F8D0200126334406FA00FE40
:102E700000EB80004EEA02026364594605EB8000D5
:102E8000C5F8D020C5F8CC3000F0EAFF01F096FC80
:102E9000D5F8C820224B22B1D3F88C30DB6A9F4290
:102EA00005D83046BDE8F88F01F054FCFEE701F08C
:102EB00045FC3046BDE8F88FC5F88C40D5F89C300D
:102EC000012BCCD12E4605F164083046143600F0B3
:102ED000B7FF4645F9D1134E304606F1140800F00D
:102EE000AFFF404600F0ACFFA6F1280000F0A8FFBD
:102EF000A6F13C0000F0A4FFC5F89860C5F89480E6
:102F0000ADE7584602F00EFE4FF0FF30BDE8F88FF7
:102F1000900002F0D9FD83460028F5D048E700BFB5
:102F2000E0090020800A002030B5002485B0039419
:102F3000029401940094234640220F490F48FFF762
:102F400021FF012806D005460DB105B030BD01F0C6
:102F500001FCFEE7FFF7F6F801280546F4D101F081
:102F6000F9FB074BC3F8C850C3F8904005B0BDE863
:102F7000304001F07FBC00BF0C6100082D2D00081F
:102F8000E0090020034AD2F8D4300133C2F8D4302B
:102F9000704700BFE0090020014BD3F89000704754
:102FA000E00900202DE9F84F454CD4F8D430002B2F
:102FB0004ED1D4F890300133C4F89030D4F89080DA
:102FC000B8F1000F52D03F4F3B6898456AD3DFF805
:102FD000F0A000264FF0010927E0DAF89830DB680E
:102FE000DD686B6805F1040B984525D3584600F061
:102FF0005FFFAB6A05F118000BB100F059FFE86AFA
:10300000D4F8D03009FA00F200EB8000134359469F
:1030100004EB8000C4F8D03000F022FFD4F88C30EC
:10302000EA6ADB6A9A4228BF0126D4F898301B6806
:10303000002BD2D14FF0FF333B60D4F88C30DB6AE9
:1030400003EB830354F82330022B28BF012605E04D
:10305000D4F8DC3000260133C4F8DC30D4F8E0309A
:10306000002B18BF01263046BDE8F88FD4F8983001
:103070001B680BBBD4F89830D4F89420C4F898207F
:10308000C4F89430D4F8D8300133C4F8D830D4F828
:1030900098301B6843B90B4F4FF0FF333B603B68E0
:1030A000984594D20026C8E7D4F89830054FDB68DD
:1030B000DB685B683B6087E701F04CFBFEE700BF25
:1030C000E0090020380400202DE9F047344CD4F802
:1030D000D43013B901F03EFBFEE701F051FBD4F808
:1030E000D430013BC4F8D430D4F8D430B3BBD4F8D6
:1030F0009C309BB32546A1464FF0010821E0D5F84E
:103100008430DE68371D06F1180000F0D1FE384625
:1031100000F0CEFEF06AD5F8D03008FA00F200EBED
:1031200080001343394605EB8000C5F8D03000F02D
:1031300097FED5F88C30F26ADB6A9A4228BFC9F84C
:10314000E0A0A26F4FF0010A154B002AD7D1D3F8A7
:10315000DC204AB9D4F8E040012C19D0002401F059
:103160002DFB2046BDE8F087D3F8DC30002BF1D0F2
:103170000125FFF717FF08B1C4F8E050D4F8DC30A0
:10318000013BC4F8DC30D4F8DC30002BF1D1E1E7AE
:1031900001F0D4FA01F012FB2046BDE8F08700BF31
:1031A000E009002028B338B5164C0346D4F8D420E3
:1031B0000ABBD4F8D4200132C4F8D420D4F89050FB
:1031C000D4F88C001D44043000F072FE50B9D4F8DD
:1031D0008C300122D96AD4F8D0308A4023EA020325
:1031E000C4F8D0302846FFF7ABFDFFF76DFF28B1DC
:1031F00038BD01F0A3BA01F0ADFAFEE7BDE83840F2
:1032000001F09CBAE0090020144A08B5D2F8D43085
:10321000FBB9C2F8E030D2F8D030B3FA83F3DBB2B6
:10322000C3F11F0303EB83039B00D158D01869B18E
:1032300041680833496813449942416008BF4968AE
:10324000CB6808BF4160C2F88C3008BD01F082FA3B
:10325000FEE70123C2F8E03008BD00BFE00900200E
:1032600038B500B3154C0D46D4F88C10183100F069
:1032700005FED4F88C00043000F01AFE50B9D4F8E2
:103280008C300122D96AD4F8D0308A4023EA020374
:10329000C4F8D0306B1C09D0D4F890002844BDE8A5
:1032A0003840FFF74DBD01F055FAFEE7D4F88C1019
:1032B00003480431BDE8384000F0D2BDE0090020E9
:1032C000440A002038B5F0B1104C0D46D4F88C10EB
:1032D000183100F0C5FDD4F88C00043000F0E8FD92
:1032E00050B9D4F88C300122D96AD4F8D0308A4051
:1032F00023EA0203C4F8D030D4F890002844BDE893
:103300003840FFF71DBD01F025FAFEE7E009002077
:10331000C36870B5DD686DB305F11806174C30460B
:1033200000F0C6FDD4F8D430F3B92E1D304600F0BD
:10333000BFFDE86AD4F8D0300122824000EB800063
:103340001343314604EB8000C4F8D03000F088FD10
:10335000D4F88C30E96ADA6A084B914286BF0120C2
:10336000C3F8E000002070BD314604F1780000F0A1
:1033700077FDEDE701F0EEF9FEE700BFE009002080
:1033800008B538B1054BD3F8D820D3F8903080E891
:103390000C0008BD01F0DEF9FEE700BFE0090020E7
:1033A000F8B580B30E4659B3044601F0E9F9326826
:1033B0001648531CD0F890501DD0D0F8D830216852
:1033C0009942636801D09D4210D2E91A8A420DD910
:1033D000D0F8D870521BD0F89010134433600025F9
:1033E0002760616001F0EAF92846F8BD012501F087
:1033F000E5F92846F8BD002501F0E0F92846F8BDBA
:1034000001F0A8F9FEE701F0A5F9FEE7E0090020C8
:10341000024B0122C3F8E020704700BFE009002002
:10342000064BD3F8C82032B1D3F8D430002B0CBFF0
:103430000220002070470120704700BFE0090020F3
:10344000002847D0F8B5244CC36AD4F88C20D26A3F
:10345000934214D28269002A05DBD4F88C20D26A08
:10346000C2F10502826103EB8303426904EB83032B
:103470009A42194D04D0D5F88C30DB6AC362F8BD8E
:10348000071D0646384600F013FD70B9F36A03EBDA
:10349000830255F8222042B9D5F8D020012101FA43
:1034A00003F322EA0303C5F8D030D4F88C300125A9
:1034B000DB6AD4F8D0209D4003EB8300F36245EA39
:1034C0000203394604EB8000C4F8D030BDE8F84070
:1034D00000F0C6BC704700BFE009002048B1F8B555
:1034E000214D0446D5F88C30984204D001F032F9D1
:1034F000FEE700207047036D43B1C16AC26C013B17
:103500009142036500D023B10020F8BD01F022F9FB
:10351000FEE7071D384600F0CBFC68B9E06A00EB17
:10352000800355F823303BB9D5F8D03001228240D2
:1035300023EA0203C5F8D030E06CD5F8D03001267C
:1035400006FA00FEC0F10502E06200EB80004EEAE0
:10355000030305EB80003946A261C5F8D03000F0C6
:103560007FFC3046F8BD00BFE0090020054BD3F8D2
:103570008C2022B1D3F88C100A6D01320A65D3F881
:103580008C007047E00900202DE9F04F4FF0000853
:1035900085B045466A4FDFF8C0E16A4EDFF8BCC12E
:1035A00002E00135102D7CD001230A68AB4033EADC
:1035B0000202F6D14A68122A00F0998000F2828055
:1035C000022A00F09B8077D9032A00F09480112A08
:1035D00002D1CA6802F10408FF2B65D8814602684F
:1035E0009246AA000F2404FA02FB2AEA0B0A08FA00
:1035F00002F24AEA0202C9F80020D1F804A01AF047
:10360000805FCED0BA6925F0030942F00102BA61A9
:10361000BA6909F1804902F00102039209F5803983
:1036200005F00302DDF80CB09200D9F808B0944020
:103630002BEA04047045019475D0604575D0424C66
:10364000A04277D0414CA0420CBF4FF0030B4FF08B
:10365000040B0BFA02F2019C1AF4803F44EA0204C4
:10366000C9F80840326805F1010514BF1A439A43AE
:10367000326072681AF4003F14BF1A439A437260B2
:10368000B2681AF4801F14BF1A439A43B260F268FA
:103690001AF4001F14BF134322EA0303102DF36032
:1036A00082D105B0BDE8F08F4468A5F10802A246BA
:1036B000920000F1040995E7A2B1012A8CD1D1F85A
:1036C0000C8089E7224CA2420CD01BD9214CA2428B
:1036D00008D004F58034A24204D0A4F58014A2429C
:1036E0007FF47AAF8A68BAB94FF0040874E7CA6801
:1036F00002F10C0870E74FF000086DE7CA6802F1AC
:10370000080869E7A4F58014A242EBD004F58034E0
:10371000A2427FF461AFE5E7012A0CBF0361436178
:103720004FF0080858E7002295E74FF0010B0BFA1D
:1037300002F290E74FF0020B0BFA02F28BE700BFA8
:10374000001002400004014000100140001401403C
:10375000000021100000311000080140000C014061
:10376000C3685940C160704718B390F8212030B445
:1037700003460AB980F82020181D15C819690243AC
:103780001D6814435A6944EA010029689C69024390
:10379000D869144321F47F52204322F030020243BF
:1037A000002101242A60084683F82140596330BC77
:1037B00070470120704700BF036870B50446AD48EC
:1037C000AD4983421A460D6838D01430834200F068
:1037D000D6801430834200F0DF801430834200F042
:1037E00003811430834200F0F2801430834200F0F1
:1037F00020812E0140F1A38119680E076BD519684D
:103800009C4821F008018342196051D09B498B42AA
:1038100000F01E8114318B4200F04E8114318B4236
:1038200000F05E8114318B4200F0408114318B42F4
:103830000CBF4FF400014FF000613AE02807DBD4E1
:1038400009684D0740F1BE801A68560740F1BA80FA
:103850001A68900600F1D980864A196821F004019F
:10386000196084498A4200F0D08084498A4200F07D
:10387000F18014318A4200F0228114318A4200F032
:10388000328114318A4200F0038114318A4200F0FF
:1038900038817948E16A4FF080661125466084F8E6
:1038A0002150002940F0B98000684FF0007131E0EC
:1038B00008217148256B4160616B042641F00101CC
:1038C0000020616384F8216084F820001DB1204647
:1038D000A84723681A466748674983420968B0D0F9
:1038E000143083424FD01430834259D01430834275
:1038F0007ED0143083426ED01430834200F09D801D
:103900004E0103D519684E0700F109815A484FF05E
:103910000071006801423ED0196888073BD51968DC
:10392000890603D4196821F002011960514B9A42AB
:1039300067D014339A4266D014339A4200F08580DF
:1039400014339A4200F0B58014339A4200F0C580D7
:1039500014339A4214BF4FF000724FF400124649DC
:10396000A36A4A60606B01210022606384F8211021
:1039700084F820207BB12046BDE8704018472D0612
:103980003FF53AAF09684E0613D43B493B4A0868F5
:1039900020210142C0D170BD28053FF52DAF096837
:1039A000490500F1EB803449354A08684FF400714D
:1039B000B0E71A685207E8D5304A196889063FF51A
:1039C00054AF4AE72C492B4A08680221A2E72D038D
:1039D0003FF512AF09684D0300F1AB802649294A33
:1039E00008684FF4003195E72E043FF505AF0968EC
:1039F0004A0400F1BD802049234A08684FF4005171
:103A000088E70222ABE72022A9E71B4AE16A0425E6
:103A10001120556084F8210041B32046884723686F
:103A2000144915488B421A46006840F08A800221EA
:103A300070E728023FF5E0AE0968480274D40E49E9
:103A4000124A08684FF4001164E74FF4007286E7E9
:103A500080212EE70848E16A40261125466084F857
:103A600021500029D9D10068202153E71068014A6C
:103A7000DDE700BF08000240000002401C000240D9
:103A80003000024058000240440002406C000240F6
:103A90003F48E16A4FF480261125466084F82150A2
:103AA0000029BAD100684FF4003133E74FF4002108
:103AB000FFE64FF4005252E74FF40061F9E6344854
:103AC000E16A4FF480661125466084F82150002990
:103AD000A3D100684FF400711CE74FF400323EE7B9
:103AE0004FF40041E5E62A48E16A4FF4804611258B
:103AF000466084F8215000298FD100684FF40051AE
:103B000008E72348E16A4FF480061125466084F8EF
:103B10002150002981D100684FF40011FAE619689C
:103B20008D063FF59EAE98E61A68510787D5194A6B
:103B300043E71A6855077FF551AF174A3DE7096813
:103B4000DEE614318B423FF423AF14318B423FF455
:103B50002DAF14318B423FF451AF14318B4213D04F
:103B600014318B4214BF4FF000714FF40011D1E6B5
:103B70001A6855077FF53FAF084A1EE71A685007D5
:103B80007FF511AF064A18E74FF40031C2E600BFD7
:103B9000000002406C000240580002404400024015
:103BA0003000024012230B80004870473C04002084
:103BB00004230B80004870475004002010B5044CCB
:103BC0000A460448214601F0F9FE204610BD00BF18
:103BD0007C1E00201461000810B5044C0A460448FD
:103BE000214601F0EBFE204610BD00BF7C1E0020E8
:103BF0002861000810B5044C0A460448214601F02B
:103C0000DDFE204610BD00BF7C1E00204061000884
:103C100010B5044C0A460448214601F0CFFE204668
:103C200010BD00BF7C1E00205061000810B5044C80
:103C30000A460448214601F0C1FE204610BD00BFDF
:103C40007C1E00205C61000802680E4B9A4200D086
:103C5000704703F5DA33D86900B540F40000D86145
:103C6000DB6983B003F400030022052101931420D3
:103C7000019BFCF7D3FB1420FCF708FC03B05DF8B4
:103C800004FB00BF005C004000F57B71D0F81C0411
:103C9000FDF736BF00EB4113D3F81C22D0F81C040B
:103CA000FDF75EBF00EB4113DA6BD0F81C04FDF7A3
:103CB0008DBF00BFD0F81C04FEF710B810B5044645
:103CC0000121D0F81C04FDF7F3FFD4F81C04BDE873
:103CD0001040FDF7CDBF00BF10B50446D0F81C045E
:103CE000FDF7EAFFA36923B1024A136943F0060313
:103CF000136110BD00ED00E0D0F81C04FDF7E6BF35
:103D000070B505461C4B1D4E0024C3F81C04082149
:103D1000C0F82032022218461E6059609A60DC60AA
:103D20009C61DC611C62FDF77DFA22462146D5F8D4
:103D30002002182301F068FE2246D5F820025823FD
:103D4000802101F061FE2246D5F82002C0238121A6
:103D500001F05AFE2246D5F820024FF48873012163
:103D600001F052FED5F8200222464FF480738221E2
:103D700001F04AFE204670BD7C200020005C00401F
:103D800008B5D0F82002FDF7BBFA002008BD00BF3F
:103D900010B51C46D0F8200213462246FDF7DCFA87
:103DA000002010BD08B5D0F82002FDF7FBFA002076
:103DB00008BD00BF08B5D0F82002FDF719FE0020AD
:103DC00008BD00BF08B5D0F82002FDF73DFE002079
:103DD00008BD00BF0A06D0F8203204D403EB41131B
:103DE00093F80A02704701F07F0103EB411393F847
:103DF0002A00704708B5D0F82002FDF799FA002094
:103E000008BD00BF08B5D0F82002FDF71BFB00205D
:103E100008BD00BF08B5D0F82002FDF7E7FA002082
:103E200008BD00BF08B5D0F82002FDF703FB08BDB0
:103E300000487047C40A002001F006BF704700BF69
:103E400000F108034FF0FF310022816080E80C0090
:103E5000C3600361704700BF00230361704700BF68
:103E600090E80C0010B49C6801328C609C684B6038
:103E70006160996010BC08610260704730B40D68E1
:103E80006B1C11D000F1080200E01A4653681C6850
:103E9000A542FAD204684B60013499608A6051608F
:103EA0000861046030BC704702695368F2E700BFE4
:103EB00043688168026910B49960816854684B60F6
:103EC0001368A04208BF5160013B0021016110BC92
:103ED00018461360704700BF044A05491368002B59
:103EE00008BF0B461844106018467047E40C0020C9
:103EF000882700200F4B00B59A6983B042F0010279
:103F00009A619B69032003F001030193019BFCF775
:103F100073FA00220F214FF0FF30FCF77FFA064AB8
:103F2000536823F0E06343F00073536003B05DF81F
:103F300004FB00BF0010024000000140194B026862
:103F40009A4200D0704703F56C439A69F0B542F489
:103F500000729A619B6987B003F40073044602A95A
:103F60000193072703261048104D019B02970396E3
:103F7000FFF70AFB0E4B4FF4806120222B60802755
:103F800000234FF480762846EF602E616961AA61B4
:103F90006B60AB60EB61FFF7E7FB25626C6207B01B
:103FA000F0BD00BF0024014000080140F41D0020C6
:103FB000080002400268094B9A4200D07047A3F5FE
:103FC00000535A6982B042F040025A615B6903F0C3
:103FD00040030193019B02B0704700BF00300240D4
:103FE000704700BF02680F4B9A4200D0704700B57F
:103FF00083B0FCF7A5F90C4A4FF40043D16941F0B6
:104000000061D161D26902F000620192019A93FAD3
:10401000A3F3B3FA83F3054A012142F8231003B056
:104020005DF804FB002800400010024000044242FA
:1040300030B5036887B0B3F1804F1CD0244A934257
:104040002DD0244A934201D007B030BD224B022428
:10405000DA694FF4E07542F00402DA61DB6902A923
:1040600003F0040301931D48019B029503940594FA
:10407000FFF78AFAE8E703F50433D869002240F035
:104080000100D861DB69052103F0010302931C20C4
:10409000029BFCF7C3F91C20FCF7F8F9D4E70E4BA0
:1040A0000224DA6931252243DA61DB6902A923405F
:1040B00000930A48009B029503940594FFF764FA65
:1040C000074A536823F4406343F400635360BBE73B
:1040D000000400400008004000100240000C0140B5
:1040E0000000014008B5FEF71FFF002008BD00BF1B
:1040F000024670B5B0F9084086B0842C14BFE51CA8
:104100000025002405AE40680B461168128A009510
:10411000039402940196FEF735FE012814BF204651
:10412000059806B070BD00BF08B5002808BF012083
:10413000FFF738F8002008BD002203C800F0D6B809
:1041400008B5FFF76DF9012803D0BDE8084000F07D
:1041500069BB08BD38B5036C04463BB90568002D42
:1041600030D00020A36B0133A36338BD15461A4637
:1041700085B9806801F070FDA168236C62680B440A
:104180009342A360EDD323682846A360A36B013359
:10419000A36338BDC06801F05FFD236CE2685B4239
:1041A00021681A448A42E26002D262681344E360E2
:1041B000022DD6D1A36B002BD3D0A36B0020013BE3
:1041C000A363CFE74068FFF789F96560CAE700BFDE
:1041D000026C72B1034610B40846D9685C68114499
:1041E000A142D96024BF1968D960D96810BC01F018
:1041F00033BD704738B5044600F0C2FAA36C002BFB
:1042000014DD636A93B104F1240507E0A36C013B5C
:10421000A364A36C002B09DD636A3BB12846FFF75A
:1042200077F80028F2D0FFF7F3F8EFE74FF0FF330D
:10423000A36400F0C3FA00F0A3FA636C002B14DD52
:10424000236993B104F1100507E0636C013B6364DB
:10425000636C002B09DD23693BB12846FFF758F852
:104260000028F2D0FFF7D4F8EFE74FF0FF33636494
:10427000BDE8384000F0A2BA70B5002833D004463B
:104280000E4600F07DFA226CE36B206803FB02F31C
:104290009A1A4FF0FF35024403440021A163E26003
:1042A00065646360A060A5648EB923691BB900F0E2
:1042B00085FA012070BD04F11000FFF729F80128EC
:1042C000F5D100F03BFA00F079FA012070BD04F15D
:1042D0001000FFF7B5FD04F12400FFF7B1FD00F079
:1042E0006DFA012070BD00F035FAFEE7F8B5B8B1FF
:1042F0000E4617460546B1B101FB00F0553001F0FE
:10430000E3FB0446B0B100F154030360E5632664A7
:1043100001212046FFF7B0FF84F850702046F8BD19
:1043200000F018FAFEE7542001F0CEFB044608B175
:104330002460EBE700F00EFAFEE700BF2DE9F04342
:1043400085B0019200285FD089461F4604460029A7
:104350007DD0022F3FD0FFF763F8002852D1019E95
:10436000002E71D14FF0000825E000F027FAFEF78B
:1043700009FE00F005FA636C013308BFC4F84480FD
:10438000A36C013308BFC4F8488000F017FA01A9F4
:1043900002A8FFF705F8002839D100F0F1F9A26B67
:1043A000E36B9A421DD000F009FA2046FFF722FF86
:1043B000FEF78AFE012600F0E3F9A26BE36B9A4256
:1043C00034D3022F32D0019D55B3002ECDD102A897
:1043D000FEF7D6FFC9E7E36B012BBCD000F0BAF9BA
:1043E000FEE700F0EBF9019904F11000FEF738FF49
:1043F0002046FFF7FFFEFEF767FE0028DAD100F047
:104400009DF9D7E70026ADE700F0A4F9FEE72046C6
:10441000FFF7F0FEFEF758FE002005B0BDE8F08380
:1044200000F0CCF9284605B0BDE8F0833A4649468D
:104430002046FFF78FFE636A83B9A8B900F0BEF982
:10444000012005B0BDE8F08300F084F9FEE7036CBD
:10445000002B3FF47EAF00F07DF9FEE704F124006D
:10446000FEF756FF0128E9D100F068F9E6E700BF42
:104470002DE9F041002836D00D46174698460446EF
:10448000002946D0B8F1020F0FD000F03BFA00F03F
:1044900061F9A36BE26B06469A4212D800253046BA
:1044A00000F088F92846BDE8F081E36B012B02D0CB
:1044B00000F050F9FEE700F025FA00F04BF906464F
:1044C000A36B424629462046FFF744FEA36C013306
:1044D0000CD0A36C01252B443046A36400F06AF98C
:1044E0002846BDE8F08100F035F9FEE7636A012552
:1044F000002BD4D004F12400FEF70AFF0028CED010
:10450000002FCCD030463D6000F054F92846BDE87D
:10451000F081036C002BB5D000F01CF9FEE700BF62
:104520002DE9F04385B00192002852D08846994683
:104530000446002900F09380FEF772FF20B9019E27
:104540001EB100F007F9FEE70026002707E000F0A3
:1045500035F92046FFF74EFEFEF7B6FD012600F0C6
:104560000FF9A36B002B4ED1019D002D45D066B3F2
:1045700000F024F9FEF706FD00F002F9636C013348
:1045800008BF6764A36C013308BFA76400F016F985
:1045900001A902A8FEF704FF30BB00F0F1F8A36BFD
:1045A000002BD4D100F00AF92368ABB1019904F1D2
:1045B0002400FEF755FE2046FFF71CFEFEF784FDA3
:1045C0000028CBD100F0BAF8C8E702A8FEF7D8FE61
:1045D000CEE700F0BFF8FEE700F0D2F86068FEF723
:1045E0002FFF00F0EBF8E1E72046FFF703FEFEF7B0
:1045F0006BFD002005B0BDE8F08300F0DFF8284631
:1046000005B0BDE8F08341462046E568FFF7E0FDD0
:10461000B9F1000F0FD1A36B2268013BA36312B95C
:10462000FEF7A4FF6060236993B900F0C7F801208A
:1046300005B0BDE8F083636AE560002BF5D004F1B6
:104640002400FEF765FE0028EFD000F077F8ECE7D5
:1046500004F11000FEF75CFE0128E6D1F5E7036CDB
:10466000002B3FF469AF00F075F8FEE770B4094A1B
:10467000002352F83340074E02EBC30524B1013347
:10468000082BF6D170BC704746F83310686070BCD8
:10469000704700BF9C24002038B504460D4600F04A
:1046A0006FF8636C013304BF00236364A36C0133B0
:1046B00004BF0023A36400F081F8A36B23B929464B
:1046C00004F12400FEF7FEFD2046BDE83840FFF768
:1046D00091BD00BF06480068006880F3088862B694
:1046E00061B6BFF34F8FBFF36F8F00DF00BF0000D5
:1046F00008ED00E0074B10B44FF0807440F8044C14
:1047000040F8081C40F8202C40F80C3C10BC403805
:10471000704700BF65470008074B19680868B0E894
:10472000F00F80F30988BFF36F8F4FF0000080F324
:1047300011884EF00D0E70476C0A0020044B4FF0AC
:1047400080521A60BFF34F8FBFF36F8F704700BF67
:1047500004ED00E0EFF311804FF0500181F3118878
:104760007047002008B5054B1B68013302D0FFF7E6
:10477000F1FFFEE7FFF7EEFFFEE700BF7004002049
:1047800008B5FFF7E7FF094A136801331360BFF369
:104790004F8FBFF36F8F012B00D008BD044B1B68F8
:1047A00013F0FF0FF9D0FFF7D5FFFEE770040020EC
:1047B00004ED00E080F31188704700BF08B5074B97
:1047C000186818B10138186018B108BDFFF7C2FFAA
:1047D000FEE7BDE80840FFF7EDBF00BF7004002012
:1047E000EFF30980BFF36F8F0D4B1A6820E9F00FCC
:1047F00010602DE908404FF0500080F31188FEF75B
:1048000003FD4FF0000080F31188BDE808401968EF
:104810000868B0E8F00F80F30988BFF36F8F704726
:104820006C0A002008B5FFF795FFFEF7BBFB18B137
:10483000044B4FF080521A600020BDE80840FFF79B
:10484000B9BF00BF04ED00E0064B074A1B680748EC
:10485000A2FB0323064A9B09013B07210360116069
:10486000704700BF00000020D34D621014E000E04C
:1048700010E000E010B51F4B82B01A78FF21D2B2D1
:10488000019219701B781C48DBB28DF803309DF83B
:1048900003309DF80310072203F05003090603704C
:1048A00042600DD5062200E00A469DF80330511EF5
:1048B0005B00DBB28DF803309DF803301B06F3D4A8
:1048C00001990C4C0D4BC9B221701968120241F4C8
:1048D00070011960196802F4E06241F070411960DA
:1048E0004260FFF7B1FF064B00221A60FFF7F2FEAD
:1048F000FFF738FF00E400E0E80C002020ED00E0C6
:104900007004002008B5EFF305820F2A08D80A4B7F
:104910000A495A680B6803F4E063934209D808BD5A
:104920000749054B525C19789142F1D9FFF712FF04
:10493000FEE7FFF70FFFFEE7E80C00200CED00E0BC
:10494000F0E300E0D0F818321BB10020C3F81402E5
:1049500070470220704700BFD0F81C3210B5D0F865
:1049600018425BB194F80002FF2807D09B6894F8C6
:10497000012221469847FF2384F80032002010BD11
:1049800043230380004870477404002043230380BE
:1049900000487047B8040020432303800048704754
:1049A000FC0400200A2303800048704740050020D3
:1049B00038B50446D0F81852FFF734FAD4F8183254
:1049C000C5F80C024BB1D4F81C3205F50371DB6855
:1049D000D5F804029847002038BD022038BD00BF3A
:1049E00070B50B780C4613F0600214D0202A10D159
:1049F000CA88054622B31B06D0F8186214D44B7837
:104A0000314686F80032E38886F80132E28801F008
:104A1000A5F8002070BD4B780A2BFAD101220B4972
:104A200001F086F8002070BDD0F81C3231469B683A
:104A300060789847E2883146284601F079F8E8E73F
:104A4000D0F81C3248789B689847E2E7F00C0020C9
:104A500010B504468121FFF7A5F901212046FFF793
:104A6000A1F920468221FFF79DF9D4F8183253B1FD
:104A7000D4F81C325B689847D4F81802FFF7DCF9C9
:104A80000023C4F81832002010BD00BFF8B5037C25
:104A9000044673BB4FF4007302228121FFF778F9BB
:104AA0004FF40073022201212046FFF771F9082319
:104AB000032282212046FFF76BF94FF40770FFF7BE
:104AC000B7F90546C4F8180230B3D4F81C320026F2
:104AD0001B689847277CD5F80422C5F81462204645
:104AE000C5F818628FB140230121FFF793F93046D2
:104AF000F8BD402302228121FFF74AF94023022218
:104B000001212046FFF744F9D1E74FF4007301215A
:104B1000FFF780F93846F8BD0120F8BD19B1C0F89B
:104B20001C12002070470220704700BFD0F81832D6
:104B30000020C3F80812C3F810227047D0F81832CA
:104B40000020C3F804127047D0F818228AB110B5BB
:104B5000D2F814420CB1012010BD0123C2F8143266
:104B60008121B2F81032D2F80822FFF74BF9204623
:104B700010BD0220704700BFD0F818228AB110B5CE
:104B8000047CD2F804222CB140230121FFF742F922
:104B9000002010BD4FF400730121FFF73BF92046C0
:104BA00010BD0220704700BF022930B524D901EBA7
:104BB0004103244D244CC1EBC30100F5FA63A4FB6F
:104BC00003E485FB01E500F2D27000EB9303C91703
:104BD00003EBD413C1EB6501A3EB541011441B4A42
:104BE0000144A1FB0223C81A03EB50008008C0EB6C
:104BF000C000081AC0B230BD01EB4104114B124D88
:104C0000C1EBC40100F2CF74A5FB04E583FB01E313
:104C100000F2D470C91700EB9404C1EB630304EBFA
:104C2000D51499180948A4EB55120A44A2FB0001B7
:104C3000501A01EB50008008C0EBC000101AC0B23F
:104C400030BD00BF398EE3381F85EB5125499224D2
:104C500038B50446FBF7A8FB054605E0FBF7A4FBC7
:104C6000401BB0F57A7F09D823685A689206F5D5BB
:104C70005A68002042F010025A6038BD032038BD47
:104C8000026838B55368044623F010035360FBF7FD
:104C90008BFB054605E0FBF787FB401BB0F57A7FF1
:104CA00005D823685B689B06F5D5002038BD032036
:104CB00038BD00BF38B50C460546FFF7C9FF08B13F
:104CC000012038BD2B68220CA4B29A612846DC6111
:104CD000FFF7D6FF003018BF012038BD38B50C46AD
:104CE0000546FFF7B5FF08B1012038BD2B68220C3F
:104CF000A4B21A6228465C62FFF7C2FF003018BFF8
:104D0000012038BD70B500286BD0002969D0037C24
:104D1000012B33D002230124047443744B7882BBEB
:104D20000A78C3EB03134FF461649B0004FB023366
:104D30008C7806461C442146FFF7BCFF0546002838
:104D400048D133685A6822F005025A60196A5B6AD2
:104D50009BB243EA01414B1C0AD08C4208D901F5B1
:104D6000A83101F5C0713046FFF7B8FF00283BD1EC
:104D70000122002372743374284670BD0225284630
:104D800070BD0A781C0904EB840403F00F0303EBE5
:104D90004404130903EB8303E4B202F00F028978A1
:104DA000C4EB041402EB4302D2B2A3004FF46164DB
:104DB00004FB02330C0904EB840401F00F0101EB46
:104DC0004404E4B21C4421460646FFF773FF05463F
:104DD0000028B6D0042200230125727433742846BB
:104DE00070BD0125284670BD0423357473740125F8
:104DF000C5E700BF00284DD000294BD0037C012B14
:104E000027D070B502230124047443741ABBCB78F5
:104E1000C3734E7846738A78827304460D461846EB
:104E20003146FFF7C1FE2073287021688B69CA697B
:104E300088699EB285B2AE4253D0CB699BB243EA39
:104E400000432D4A934227D8012300206374207425
:104E500070BD02207047CA78130903EB830302F088
:104E60000F0202EB4303DBB2C3734A78160906EB69
:104E7000860602F00F0202EB4606F6B246738C7805
:104E8000220902EB820204F00F0404EB4202D2B2C8
:104E90008273C2E701207047184A194DA2FB031222
:104EA000120C05FB123520462946FFF703FF064684
:104EB000D8B92368196A5B6A9BB243EA01414B1C6B
:104EC000C2D08D42C0D901F5A83101F5C07120468C
:104ED000FFF704FF0028B7D0042326746374012071
:104EE00070BD92B242EA0343ABE70422002362742E
:104EF0002374012070BD00BF8F5F010007452EC2E3
:104F000080510100C0B1026838B55368044623F0EF
:104F100008035360FBF748FA054605E0FBF744FA3F
:104F2000401BB0F57A7F05D823685B681B07F5D571
:104F3000002038BD032038BD0120704700284DD027
:104F400038B5437C044603F0FF02002B3AD002231D
:104F500063742046FFF7D6FF18B104236374012061
:104F600038BD2046FFF774FE0028F6D12368A268FA
:104F7000596821F00701596022B11948016B21F0ED
:104F8000010101631648C16A21F460710A43C262DB
:104F90006068421C1AD0996885B221F00F0141EA7D
:104FA00010409860DA682046120C12042A43DA6036
:104FB000FFF766FE0028D0D10123E0736373A3736B
:104FC000637438BD0274FFF70DF8C0E70120FBF7EA
:104FD00029F90028C1D023680138DCE70120704797
:104FE000006C0040036A8A6823F001030362F0B496
:104FF000036A114E476885690C6823F0020325F0A7
:105000007305B04243EA020344EA050406D04A6845
:10501000476084614263F0BC03627047CD684E69AB
:105020008A6923F0080327F440772B43324323F0A7
:1050300004031743EBE700BF002C0140026AF0B401
:1050400022F480728E680262036A124D4768C46956
:105050000A6823F4007324F07304A84243EA062389
:1050600042EA040206D049684760C261F0BCC163ED
:1050700003627047CE684D6927F4405723F40063FC
:105080008C6943EA062347EA051523F4806345EA61
:105090000417E8E7002C0140026AF0B422F48052C1
:1050A0008F680262036A0D4E4568C2690C6823F47A
:1050B000005322F4E642B04243EA073342EA0422B4
:1050C00006D049684560C261F0BC01640362704764
:1050D0004C6925F4804545EA8415F2E7002C01402F
:1050E000704700BF90F83830012B40D0022203688F
:1050F00070B480F839209A680C6822F47F4222F05C
:1051000077020125402C80F838509A6073D018D966
:10511000702C60D02DD9B4F5805F57D0B4F5005F06
:105120001CD19C688D684A6824F47F44C9682A436E
:10513000224342EA01229A609A6842F480429A60CD
:105140000CE0102C32D038D9202C6CD0302C05D16A
:105150009A6822F0700242F037029A60002301221E
:1051600080F8392080F8383070BC1846704702202B
:105170007047502C5ED0602CF0D11C6A4D6824F032
:105180001004CE681C6299691A6A21F4704122F0F9
:10519000A00242EA051241EA063199611A629A6850
:1051A00022F0700242F067029A60D7E79A6822F014
:1051B000700242F017029A60D0E7002CCED19A68B4
:1051C00022F0700242F007029A60C7E79A6822F064
:1051D00007029A60C2E79C688D684A6824F47F449D
:1051E000C9682A43224342EA01229A609A6842F03F
:1051F00077029A60B2E71A6A1C6A4E6824F00104CA
:10520000CD681C62996922F00A0221F0F001324354
:1052100041EA051199611A629A6822F0700242F01F
:1052200047029A609AE79A6822F0700242F02702D9
:105230009A6093E71A6A1C6A4E6824F00104CD68EC
:105240001C62996922F00A0221F0F001324341EA1E
:10525000051199611A629A6822F0700242F05702B1
:105260009A607BE7704700BF704700BF704700BF80
:10527000704700BF704700BF036810B51A69044645
:10528000910702D5DA68920762D41A69500702D5ED
:10529000DA68510749D41A69120702D5DA6810078B
:1052A00031D41A69D20602D5DA68D00618D41A6940
:1052B000D10702D5DA68D2076BD41A69100602D575
:1052C000DA6811066DD41A69520602D5DA685006FA
:1052D00057D41A69910602D5DA68920649D410BDEE
:1052E0006FF010021A61DB69082213F4407F227606
:1052F000204661D1FFF7B8FF2046FFF7B9FF002233
:1053000023682276D3E76FF008021A61DB69042272
:1053100099072276204655D1FFF7A6FF2046FFF7D2
:10532000A7FF002223682276BBE76FF004021A6110
:105330009B69022213F4407F227620463FD1FFF77B
:1053400093FF2046FFF794FF002223682276A2E70E
:105350006FF002021A619B6901229B07027628D135
:10536000FFF782FF2046FFF783FF002223682276A3
:105370008BE76FF020022046BDE810401A6100F074
:105380005FBC6FF040021A612046FFF773FF23688D
:105390009FE76FF001021A612046FFF763FF236861
:1053A0008BE76FF080021A61204600F04BFC236807
:1053B00089E7FFF75BFFD8E7FFF758FF9FE7FFF7A5
:1053C00055FFC1E7FFF752FFABE700BF1D4A036877
:1053D000904225D0B0F1804F10B410D0A2F5943295
:1053E00090420CD002F58062904208D08C680A6826
:1053F00003600123C462826210BC436170474A6843
:1054000023F070031343CA6823F440738C6813437A
:10541000096803600123C462816210BC4361704764
:105420004A6823F070031343CA6823F4407313439C
:1054300003608B68C3620B6883620B69036301239B
:1054400043617047002C0140B8B190F8393010B575
:1054500003F0FF0204465BB1022384F83930206870
:10546000211DFFF7B3FF012384F83930002010BD60
:1054700080F83820FEF7DCFDEEE70120704700BF22
:10548000B8B190F8393010B503F0FF0204465BB1B3
:10549000022384F839302068211DFFF797FF01238C
:1054A00084F83930002010BD80F83820FFF718FE4E
:1054B000EEE70120704700BF026AF0B422F010024C
:1054C0008E680262036A124D476882690C6823F095
:1054D000200322F4E642A84243EA061342EA0422E9
:1054E00006D0496847608261F0BC816303627047FF
:1054F000CE684D6927F4406723F080038C6943EA46
:10550000061347EA850523F0400345EA8407E8E7E8
:10551000002C014038B590F83830012B2BD00D46C7
:1055200002230121044680F8381080F839300C2A13
:105530001AD8DFE802F0351919190719191947198E
:105540001919220029460068FFF7B6FF2368286969
:10555000996941F400619961996921F480619961C7
:105560009A6942EA00229A610123002084F83930C6
:1055700084F8380038BD022038BD29460068FFF79E
:105580008BFD23682869D96941F40061D961D96923
:1055900021F48061D961DA6942EA0022DA61E3E745
:1055A00029460068FFF71EFD23682A69996941F0C2
:1055B00008019961996921F00401996199690A4387
:1055C0009A61D1E729460068FFF738FD23682A6908
:1055D000D96941F00801D961D96921F00401D96183
:1055E000D9690A43DA61BFE730B54B7883B00D461D
:1055F0000446092B0BD8DFE803F035490A590A05A0
:10560000660A7D158B8813B9CB88002B7FD080214B
:105610002046FEF7CFFB20460021FEF7CBFB002003
:1056200003B030BD8978974D01292970EFD890F8E3
:10563000FC31022B00F08980032BE8D1002900F017
:1056400016814168012909D0C9B2FCF751FA2978BD
:1056500020466160FCF742FA0228D8D0204600F0CC
:1056600095FADCE790F8FC310122023B93424FF0BF
:105670000301CCD8D0F80432C26003B1C160022269
:1056800004F10C01204600F053FAC8E790F8FC3111
:10569000023B012BBBD84B88012BC0D1D0F8143270
:1056A00000229B68C0F804229847D7E74B88012B5B
:1056B000B5D1D0F81422C0F8043293689847204638
:1056C00000F064FAABE74A88130A013B062B9ED828
:1056D00001A151F823F000BFBB570008DD570008B7
:1056E000CB5700080F5600080F560008A5570008B2
:1056F00065570008CA88012A89D190F8FC31022B2D
:105700001CD0032B83D1011D00F012FA87E790F81B
:10571000FC318D78032B05F07F053FF478AF80F8DE
:10572000FE512946FEF766FB204600F02FFA002DB9
:1057300000F09080022384F8FC3170E701460023DA
:1057400041F8083F00F0F4F969E7002986D001210B
:105750000323416080F8FC31FCF7C0F902287FF494
:105760007DAF54E7037C002B7FF451AFD0F81432A7
:105770000DF106001B6B984707234370BDF80630F8
:10578000002B3FF44CAFEA88002A3FF448AF934225
:1057900028BF134601461A462046ADF8063000F0F1
:1057A000C7F93CE7037C002B7FF431AFD0F814320B
:1057B0000DF106005B6B9847E0E7D0F810320DF171
:1057C00006011B68007C9847D8E7D2B2052A3FF64D
:1057D0001EAFDFE802F0271F170F372F037C002BC7
:1057E0003CD1D0F814320DF106009B6A9847022391
:1057F0004370C3E7D0F810320DF106011B69007C3D
:105800009847BBE7D0F810320DF10601DB68007C49
:105810009847B3E7D0F810320DF106019B68007C81
:105820009847ABE7D0F810320DF106015B68007CB9
:105830009847A3E7D0F810320DF106019B69007C70
:1058400098479BE7D0F810320DF106015B69007CA8
:10585000984793E7012384F8FC31E0E6D0F814324E
:105860000DF10600DB6A98470223437086E70223A6
:10587000416080F8FC31FCF73BF9204600F086F9E6
:10588000CDE600BFF10C002038B590F8FC3104469D
:10589000032B03D10B790D46012B08D98021FEF78C
:1058A00089FA20460021FEF785FA002038BDD0F89D
:1058B00014329B689847EB88002BF6D1204600F005
:1058C00065F9F2E770B50B788A8803F06003202B46
:1058D000054657D04B780C46012BD6B234D019D39D
:1058E000032B15D190F8FC31022B31D0032B40D182
:1058F0004B8823B9730602D03146FEF75BFAD5F820
:10590000143221469B6828469847284600F03EF905
:10591000002070BD90F8FC31022B19D0032B28D148
:1059200006F07F04130600EB041431464CBF143418
:1059300004F58274FEF74EFA48BB206021462846E3
:10594000022200F0F5F8E3E790F8FC31022B05D1D4
:105950007206DDD03146FEF72DFAD9E7032B08D1C8
:105960004B88002BD4D17106CFD03146FEF72AFAEE
:10597000C5E78021FEF71EFA28460021FEF71AFA35
:10598000002070BDD0F814329B689847C0E701230F
:105990002360D3E70B7803704B784370CA788B7819
:1059A00003EB022343804A790B7903EB02238380C4
:1059B000CA798B7903EB0223C380704700B3037865
:1059C00030B4F3B10446002314F8015F0133DBB2B5
:1059D000002DF9D15B000233DCB2032513800C707B
:1059E0004D7004785CB1022300255A1CD2B2CC540D
:1059F0008D5410F8014F0233DBB2002CF5D130BCCE
:105A0000704702242346E8E711F0800F0CD001F024
:105A10007F0100EB4110283062B1190C0122C380D4
:105A2000018182720020704700EB411000F5027086
:105A3000002AF2D1827283800020704700207047D4
:105A40000020704710B5074B074C18460022074945
:105A50002360FFF76BF820680549FFF76FF8002017
:105A600010BD00BF60250020DC2400202025002080
:105A7000E02400200A6810B55AB10E4C0E480023ED
:105A800014F8012F013300F8012F0A689A42F7D861
:105A900092B20A490A48FFF749F80948FFF754F853
:105AA00008490748FFF74AF80548FFF765F800205E
:105AB00010BD00BFDF2400201F250020202500206E
:105AC00060250020E024002010B5044643071CBFD9
:105AD00020F007040834FDF755FA104A1368B3B1F3
